{
  "contractName": "ArtToken",
  "abi": [
    {
      "inputs": [
        {
          "internalType": "string",
          "name": "_name",
          "type": "string"
        },
        {
          "internalType": "string",
          "name": "_symbol",
          "type": "string"
        }
      ],
      "stateMutability": "nonpayable",
      "type": "constructor"
    },
    {
      "anonymous": false,
      "inputs": [
        {
          "indexed": true,
          "internalType": "address",
          "name": "account",
          "type": "address"
        },
        {
          "indexed": true,
          "internalType": "address",
          "name": "operator",
          "type": "address"
        },
        {
          "indexed": false,
          "internalType": "bool",
          "name": "approved",
          "type": "bool"
        }
      ],
      "name": "ApprovalForAll",
      "type": "event"
    },
    {
      "anonymous": false,
      "inputs": [
        {
          "indexed": false,
          "internalType": "uint256",
          "name": "tokenId",
          "type": "uint256"
        }
      ],
      "name": "MetadataFrozen",
      "type": "event"
    },
    {
      "anonymous": false,
      "inputs": [
        {
          "indexed": true,
          "internalType": "address",
          "name": "previousOwner",
          "type": "address"
        },
        {
          "indexed": true,
          "internalType": "address",
          "name": "newOwner",
          "type": "address"
        }
      ],
      "name": "OwnershipTransferred",
      "type": "event"
    },
    {
      "anonymous": false,
      "inputs": [
        {
          "indexed": false,
          "internalType": "uint256",
          "name": "tokenId",
          "type": "uint256"
        },
        {
          "indexed": false,
          "internalType": "address",
          "name": "creator",
          "type": "address"
        },
        {
          "indexed": false,
          "internalType": "string",
          "name": "uri",
          "type": "string"
        }
      ],
      "name": "TokenCreated",
      "type": "event"
    },
    {
      "anonymous": false,
      "inputs": [
        {
          "indexed": true,
          "internalType": "address",
          "name": "operator",
          "type": "address"
        },
        {
          "indexed": true,
          "internalType": "address",
          "name": "from",
          "type": "address"
        },
        {
          "indexed": true,
          "internalType": "address",
          "name": "to",
          "type": "address"
        },
        {
          "indexed": false,
          "internalType": "uint256[]",
          "name": "ids",
          "type": "uint256[]"
        },
        {
          "indexed": false,
          "internalType": "uint256[]",
          "name": "values",
          "type": "uint256[]"
        }
      ],
      "name": "TransferBatch",
      "type": "event"
    },
    {
      "anonymous": false,
      "inputs": [
        {
          "indexed": true,
          "internalType": "address",
          "name": "operator",
          "type": "address"
        },
        {
          "indexed": true,
          "internalType": "address",
          "name": "from",
          "type": "address"
        },
        {
          "indexed": true,
          "internalType": "address",
          "name": "to",
          "type": "address"
        },
        {
          "indexed": false,
          "internalType": "uint256",
          "name": "id",
          "type": "uint256"
        },
        {
          "indexed": false,
          "internalType": "uint256",
          "name": "value",
          "type": "uint256"
        }
      ],
      "name": "TransferSingle",
      "type": "event"
    },
    {
      "anonymous": false,
      "inputs": [
        {
          "indexed": false,
          "internalType": "string",
          "name": "value",
          "type": "string"
        },
        {
          "indexed": true,
          "internalType": "uint256",
          "name": "id",
          "type": "uint256"
        }
      ],
      "name": "URI",
      "type": "event"
    },
    {
      "inputs": [
        {
          "internalType": "address",
          "name": "account",
          "type": "address"
        },
        {
          "internalType": "uint256",
          "name": "id",
          "type": "uint256"
        }
      ],
      "name": "balanceOf",
      "outputs": [
        {
          "internalType": "uint256",
          "name": "",
          "type": "uint256"
        }
      ],
      "stateMutability": "view",
      "type": "function",
      "constant": true
    },
    {
      "inputs": [
        {
          "internalType": "address[]",
          "name": "accounts",
          "type": "address[]"
        },
        {
          "internalType": "uint256[]",
          "name": "ids",
          "type": "uint256[]"
        }
      ],
      "name": "balanceOfBatch",
      "outputs": [
        {
          "internalType": "uint256[]",
          "name": "",
          "type": "uint256[]"
        }
      ],
      "stateMutability": "view",
      "type": "function",
      "constant": true
    },
    {
      "inputs": [
        {
          "internalType": "uint256",
          "name": "",
          "type": "uint256"
        }
      ],
      "name": "creators",
      "outputs": [
        {
          "internalType": "address",
          "name": "",
          "type": "address"
        }
      ],
      "stateMutability": "view",
      "type": "function",
      "constant": true
    },
    {
      "inputs": [
        {
          "internalType": "address",
          "name": "account",
          "type": "address"
        },
        {
          "internalType": "address",
          "name": "operator",
          "type": "address"
        }
      ],
      "name": "isApprovedForAll",
      "outputs": [
        {
          "internalType": "bool",
          "name": "",
          "type": "bool"
        }
      ],
      "stateMutability": "view",
      "type": "function",
      "constant": true
    },
    {
      "inputs": [
        {
          "internalType": "uint256",
          "name": "",
          "type": "uint256"
        }
      ],
      "name": "isMetadataFrozen",
      "outputs": [
        {
          "internalType": "bool",
          "name": "",
          "type": "bool"
        }
      ],
      "stateMutability": "view",
      "type": "function",
      "constant": true
    },
    {
      "inputs": [],
      "name": "name",
      "outputs": [
        {
          "internalType": "string",
          "name": "",
          "type": "string"
        }
      ],
      "stateMutability": "view",
      "type": "function",
      "constant": true
    },
    {
      "inputs": [],
      "name": "owner",
      "outputs": [
        {
          "internalType": "address",
          "name": "",
          "type": "address"
        }
      ],
      "stateMutability": "view",
      "type": "function",
      "constant": true
    },
    {
      "inputs": [],
      "name": "renounceOwnership",
      "outputs": [],
      "stateMutability": "nonpayable",
      "type": "function"
    },
    {
      "inputs": [
        {
          "internalType": "address",
          "name": "from",
          "type": "address"
        },
        {
          "internalType": "address",
          "name": "to",
          "type": "address"
        },
        {
          "internalType": "uint256[]",
          "name": "ids",
          "type": "uint256[]"
        },
        {
          "internalType": "uint256[]",
          "name": "amounts",
          "type": "uint256[]"
        },
        {
          "internalType": "bytes",
          "name": "data",
          "type": "bytes"
        }
      ],
      "name": "safeBatchTransferFrom",
      "outputs": [],
      "stateMutability": "nonpayable",
      "type": "function"
    },
    {
      "inputs": [
        {
          "internalType": "address",
          "name": "from",
          "type": "address"
        },
        {
          "internalType": "address",
          "name": "to",
          "type": "address"
        },
        {
          "internalType": "uint256",
          "name": "id",
          "type": "uint256"
        },
        {
          "internalType": "uint256",
          "name": "amount",
          "type": "uint256"
        },
        {
          "internalType": "bytes",
          "name": "data",
          "type": "bytes"
        }
      ],
      "name": "safeTransferFrom",
      "outputs": [],
      "stateMutability": "nonpayable",
      "type": "function"
    },
    {
      "inputs": [
        {
          "internalType": "address",
          "name": "operator",
          "type": "address"
        },
        {
          "internalType": "bool",
          "name": "approved",
          "type": "bool"
        }
      ],
      "name": "setApprovalForAll",
      "outputs": [],
      "stateMutability": "nonpayable",
      "type": "function"
    },
    {
      "inputs": [
        {
          "internalType": "bytes4",
          "name": "interfaceId",
          "type": "bytes4"
        }
      ],
      "name": "supportsInterface",
      "outputs": [
        {
          "internalType": "bool",
          "name": "",
          "type": "bool"
        }
      ],
      "stateMutability": "view",
      "type": "function",
      "constant": true
    },
    {
      "inputs": [],
      "name": "symbol",
      "outputs": [
        {
          "internalType": "string",
          "name": "",
          "type": "string"
        }
      ],
      "stateMutability": "view",
      "type": "function",
      "constant": true
    },
    {
      "inputs": [
        {
          "internalType": "uint256",
          "name": "",
          "type": "uint256"
        }
      ],
      "name": "tokenSupply",
      "outputs": [
        {
          "internalType": "uint256",
          "name": "",
          "type": "uint256"
        }
      ],
      "stateMutability": "view",
      "type": "function",
      "constant": true
    },
    {
      "inputs": [
        {
          "internalType": "address",
          "name": "newOwner",
          "type": "address"
        }
      ],
      "name": "transferOwnership",
      "outputs": [],
      "stateMutability": "nonpayable",
      "type": "function"
    },
    {
      "inputs": [
        {
          "internalType": "uint256",
          "name": "",
          "type": "uint256"
        }
      ],
      "name": "uris",
      "outputs": [
        {
          "internalType": "string",
          "name": "",
          "type": "string"
        }
      ],
      "stateMutability": "view",
      "type": "function",
      "constant": true
    },
    {
      "inputs": [
        {
          "internalType": "uint256",
          "name": "_id",
          "type": "uint256"
        }
      ],
      "name": "getTokenDetails",
      "outputs": [
        {
          "internalType": "address",
          "name": "",
          "type": "address"
        },
        {
          "internalType": "uint256",
          "name": "",
          "type": "uint256"
        },
        {
          "internalType": "string",
          "name": "",
          "type": "string"
        },
        {
          "internalType": "uint256",
          "name": "",
          "type": "uint256"
        },
        {
          "internalType": "bool",
          "name": "",
          "type": "bool"
        }
      ],
      "stateMutability": "view",
      "type": "function",
      "constant": true
    },
    {
      "inputs": [
        {
          "internalType": "uint256",
          "name": "_id",
          "type": "uint256"
        }
      ],
      "name": "uri",
      "outputs": [
        {
          "internalType": "string",
          "name": "",
          "type": "string"
        }
      ],
      "stateMutability": "view",
      "type": "function",
      "constant": true
    },
    {
      "inputs": [
        {
          "internalType": "uint256",
          "name": "_id",
          "type": "uint256"
        }
      ],
      "name": "totalSupply",
      "outputs": [
        {
          "internalType": "uint256",
          "name": "",
          "type": "uint256"
        }
      ],
      "stateMutability": "view",
      "type": "function",
      "constant": true
    },
    {
      "inputs": [
        {
          "internalType": "address",
          "name": "_initialOwner",
          "type": "address"
        },
        {
          "internalType": "uint256",
          "name": "_initialSupply",
          "type": "uint256"
        },
        {
          "internalType": "string",
          "name": "_uri",
          "type": "string"
        },
        {
          "internalType": "bytes",
          "name": "_data",
          "type": "bytes"
        }
      ],
      "name": "create",
      "outputs": [
        {
          "internalType": "uint256",
          "name": "",
          "type": "uint256"
        }
      ],
      "stateMutability": "nonpayable",
      "type": "function"
    },
    {
      "inputs": [
        {
          "internalType": "uint256",
          "name": "_id",
          "type": "uint256"
        }
      ],
      "name": "freezeMetadata",
      "outputs": [],
      "stateMutability": "nonpayable",
      "type": "function"
    },
    {
      "inputs": [
        {
          "internalType": "address",
          "name": "_to",
          "type": "address"
        },
        {
          "internalType": "uint256",
          "name": "_id",
          "type": "uint256"
        },
        {
          "internalType": "uint256",
          "name": "_quantity",
          "type": "uint256"
        },
        {
          "internalType": "bytes",
          "name": "_data",
          "type": "bytes"
        }
      ],
      "name": "mint",
      "outputs": [],
      "stateMutability": "nonpayable",
      "type": "function"
    },
    {
      "inputs": [
        {
          "internalType": "address",
          "name": "_to",
          "type": "address"
        },
        {
          "internalType": "uint256[]",
          "name": "_ids",
          "type": "uint256[]"
        },
        {
          "internalType": "uint256[]",
          "name": "_quantities",
          "type": "uint256[]"
        },
        {
          "internalType": "bytes",
          "name": "_data",
          "type": "bytes"
        }
      ],
      "name": "batchMint",
      "outputs": [],
      "stateMutability": "nonpayable",
      "type": "function"
    },
    {
      "inputs": [
        {
          "internalType": "address",
          "name": "_to",
          "type": "address"
        },
        {
          "internalType": "uint256[]",
          "name": "_ids",
          "type": "uint256[]"
        }
      ],
      "name": "setCreator",
      "outputs": [],
      "stateMutability": "nonpayable",
      "type": "function"
    },
    {
      "inputs": [
        {
          "internalType": "uint256",
          "name": "_id",
          "type": "uint256"
        }
      ],
      "name": "exists",
      "outputs": [
        {
          "internalType": "bool",
          "name": "",
          "type": "bool"
        }
      ],
      "stateMutability": "view",
      "type": "function",
      "constant": true
    },
    {
      "inputs": [],
      "name": "getChainID",
      "outputs": [
        {
          "internalType": "uint256",
          "name": "",
          "type": "uint256"
        }
      ],
      "stateMutability": "view",
      "type": "function",
      "constant": true
    }
  ],
  "bytecode": "0x6080604052600060c9553480156200001657600080fd5b5060405162002a9138038062002a918339810160408190526200003991620001e0565b81516200004e9060ce9060208501906200006d565b508051620000649060cf9060208401906200006d565b50505062000287565b8280546200007b906200024a565b90600052602060002090601f0160209004810192826200009f5760008555620000ea565b82601f10620000ba57805160ff1916838001178555620000ea565b82800160010185558215620000ea579182015b82811115620000ea578251825591602001919060010190620000cd565b50620000f8929150620000fc565b5090565b5b80821115620000f85760008155600101620000fd565b634e487b7160e01b600052604160045260246000fd5b600082601f8301126200013b57600080fd5b81516001600160401b038082111562000158576200015862000113565b604051601f8301601f19908116603f0116810190828211818310171562000183576200018362000113565b81604052838152602092508683858801011115620001a057600080fd5b600091505b83821015620001c45785820183015181830184015290820190620001a5565b83821115620001d65760008385830101525b9695505050505050565b60008060408385031215620001f457600080fd5b82516001600160401b03808211156200020c57600080fd5b6200021a8683870162000129565b935060208501519150808211156200023157600080fd5b50620002408582860162000129565b9150509250929050565b600181811c908216806200025f57607f821691505b602082108114156200028157634e487b7160e01b600052602260045260246000fd5b50919050565b6127fa80620002976000396000f3fe608060405234801561001057600080fd5b50600436106101ad5760003560e01c80638da5cb5b116100ee578063cd53d08e11610097578063e985e9c511610071578063e985e9c51461041c578063f242432a14610458578063f2fde38b1461046b578063f468b26a1461047e57600080fd5b8063cd53d08e146103cd578063d2a6b51a146103f6578063e38e3b241461040957600080fd5b8063b48ab8b6116100c8578063b48ab8b61461032a578063bd85b0391461033d578063c1e037281461035d57600080fd5b80638da5cb5b146102ea57806395d89b411461030f578063a22cb4651461031757600080fd5b80632eb2c2d61161015b5780634f558e79116101355780634f558e791461029e578063564b81ef146102c9578063715018a6146102cf578063731133e9146102d757600080fd5b80632eb2c2d6146102565780634dcf6ad61461026b5780634e1273f41461027e57600080fd5b80630e89341c1161018c5780630e89341c146102105780631253c546146102235780632693ebf21461023657600080fd5b8062fdd58e146101b257806301ffc9a7146101d857806306fdde03146101fb575b600080fd5b6101c56101c0366004611e11565b6104a1565b6040519081526020015b60405180910390f35b6101eb6101e6366004611e51565b61054c565b60405190151581526020016101cf565b6102036105e9565b6040516101cf9190611ebb565b61020361021e366004611ece565b610677565b610203610231366004611ece565b61077c565b6101c5610244366004611ece565b60cb6020526000908152604090205481565b610269610264366004612033565b610795565b005b610269610279366004611ece565b610837565b61029161028c3660046120dd565b61099e565b6040516101cf91906121e3565b6101eb6102ac366004611ece565b600090815260ca60205260409020546001600160a01b0316151590565b466101c5565b610269610adc565b6102696102e53660046121f6565b610b42565b6097546001600160a01b03165b6040516001600160a01b0390911681526020016101cf565b610203610c24565b610269610325366004612257565b610c31565b610269610338366004612293565b610c40565b6101c561034b366004611ece565b600090815260cb602052604090205490565b6103bc61036b366004611ece565b600081815260cd6020908152604091829020548251808401909352600783527f4552433131353500000000000000000000000000000000000000000000000000918301919091523093469160ff1690565b6040516101cf959493929190612320565b6102f76103db366004611ece565b60ca602052600090815260409020546001600160a01b031681565b610269610404366004612361565b610d8d565b6101c56104173660046123ee565b610e54565b6101eb61042a366004612478565b6001600160a01b03918216600090815260666020908152604080832093909416825291909152205460ff1690565b6102696104663660046124ab565b610fbe565b610269610479366004612510565b611059565b6101eb61048c366004611ece565b60cd6020526000908152604090205460ff1681565b60006001600160a01b0383166105245760405162461bcd60e51b815260206004820152602b60248201527f455243313135353a2062616c616e636520717565727920666f7220746865207a60448201527f65726f206164647265737300000000000000000000000000000000000000000060648201526084015b60405180910390fd5b5060009081526065602090815260408083206001600160a01b03949094168352929052205490565b60006001600160e01b031982167fd9b67a260000000000000000000000000000000000000000000000000000000014806105af57506001600160e01b031982167f0e89341c00000000000000000000000000000000000000000000000000000000145b806105e357507f01ffc9a7000000000000000000000000000000000000000000000000000000006001600160e01b03198316145b92915050565b60ce80546105f69061252b565b80601f01602080910402602001604051908101604052809291908181526020018280546106229061252b565b801561066f5780601f106106445761010080835404028352916020019161066f565b820191906000526020600020905b81548152906001019060200180831161065257829003601f168201915b505050505081565b600081815260ca60205260409020546060906001600160a01b03166106de5760405162461bcd60e51b815260206004820152601f60248201527f417274546f6b656e237572693a204e4f4e4558495354454e545f544f4b454e00604482015260640161051b565b600082815260cc6020526040902080546106f79061252b565b80601f01602080910402602001604051908101604052809291908181526020018280546107239061252b565b80156107705780601f1061074557610100808354040283529160200191610770565b820191906000526020600020905b81548152906001019060200180831161075357829003601f168201915b50505050509050919050565b60cc60205260009081526040902080546105f69061252b565b6001600160a01b0385163314806107b157506107b1853361042a565b6108235760405162461bcd60e51b815260206004820152603260248201527f455243313135353a207472616e736665722063616c6c6572206973206e6f742060448201527f6f776e6572206e6f7220617070726f7665640000000000000000000000000000606482015260840161051b565b610830858585858561113b565b5050505050565b600081815260ca60205260409020546001600160a01b031633146108c35760405162461bcd60e51b815260206004820152603f60248201527f417274546f6b656e2e667265657a654d657461646174612320554e415554484f60448201527f52495a45445f4143434553535f544f5f465245455a455f4d4554414441544100606482015260840161051b565b600081815260cd602052604090205460ff16156109485760405162461bcd60e51b815260206004820152603660248201527f417274546f6b656e2e667265657a654d65746164617461232043414e4e4f545f60448201527f465245455a455f46524f5a454e5f4d4554414441544100000000000000000000606482015260840161051b565b600081815260cd602052604090819020805460ff19166001179055517f7c9bd91d0ccee585f666998e287e929bf935cedec1348f7afc4591eca690b90a906109939083815260200190565b60405180910390a150565b60608151835114610a175760405162461bcd60e51b815260206004820152602960248201527f455243313135353a206163636f756e747320616e6420696473206c656e67746860448201527f206d69736d617463680000000000000000000000000000000000000000000000606482015260840161051b565b6000835167ffffffffffffffff811115610a3357610a33611ee7565b604051908082528060200260200182016040528015610a5c578160200160208202803683370190505b50905060005b8451811015610ad457610aa7858281518110610a8057610a80612566565b6020026020010151858381518110610a9a57610a9a612566565b60200260200101516104a1565b828281518110610ab957610ab9612566565b6020908102919091010152610acd81612592565b9050610a62565b509392505050565b6097546001600160a01b03163314610b365760405162461bcd60e51b815260206004820181905260248201527f4f776e61626c653a2063616c6c6572206973206e6f7420746865206f776e6572604482015260640161051b565b610b40600061139c565b565b600083815260ca60209081526040808320546001600160a01b0316808452606683528184203380865293529220548592919091149060ff168180610b835750805b610be45760405162461bcd60e51b815260206004820152602c60248201527f417274546f6b656e236f70657261746f724f6e6c793a204f4e4c595f4f50455260448201526b105513d497d0531313d5d15160a21b606482015260840161051b565b610bf0878787876113fb565b600086815260cb6020526040902054610c099086611507565b600096875260cb602052604090962095909555505050505050565b60cf80546105f69061252b565b610c3c33838361151a565b5050565b60005b8351811015610d7a576000848281518110610c6057610c60612566565b602090810291909101810151600081815260ca83526040808220546001600160a01b031680835260668552818320338085529552912054919350919091149060ff168180610cab5750805b610d0c5760405162461bcd60e51b815260206004820152602c60248201527f417274546f6b656e236f70657261746f724f6e6c793a204f4e4c595f4f50455260448201526b105513d497d0531313d5d15160a21b606482015260840161051b565b6000868581518110610d2057610d20612566565b60200260200101519050610d508160cb60008781526020019081526020016000205461150790919063ffffffff16565b600094855260cb60205260409094209390935550829150610d72905081612592565b915050610c43565b50610d878484848461160f565b50505050565b6001600160a01b038216610e085760405162461bcd60e51b8152602060048201526024808201527f417274546f6b656e2373657443726561746f723a20494e56414c49445f41444460448201527f5245535300000000000000000000000000000000000000000000000000000000606482015260840161051b565b60005b8151811015610e4f576000828281518110610e2857610e28612566565b60200260200101519050610e3c84826117d6565b5080610e4781612592565b915050610e0b565b505050565b600080610e5f6118a0565b9050610e696118b6565b600081815260ca60205260409020805473ffffffffffffffffffffffffffffffffffffffff1916331790558415610eef57600081815260cc60205260409020610eb3908787611d5c565b50807f6bb7ff708619ba0610cba295a58592e0451dee2622938c8755667688daf3529b8787604051610ee69291906125d6565b60405180910390a25b600081815260cd602052604090819020805460ff19169055517f82a09cc58c9cecf0eb61d8994283ec804165931801f8b77e42dcb3b556c5c5be90610f3b90839033908a908a906125f2565b60405180910390a16001600160a01b03881615801590610f5a57508615155b15610fb357610fa188828987878080601f0160208091040260200160405190810160405280939291908181526020018383808284376000920191909152506113fb92505050565b600081815260cb602052604090208790555b979650505050505050565b6001600160a01b038516331480610fda5750610fda853361042a565b61104c5760405162461bcd60e51b815260206004820152602960248201527f455243313135353a2063616c6c6572206973206e6f74206f776e6572206e6f7260448201527f20617070726f7665640000000000000000000000000000000000000000000000606482015260840161051b565b61083085858585856118cd565b6097546001600160a01b031633146110b35760405162461bcd60e51b815260206004820181905260248201527f4f776e61626c653a2063616c6c6572206973206e6f7420746865206f776e6572604482015260640161051b565b6001600160a01b03811661112f5760405162461bcd60e51b815260206004820152602660248201527f4f776e61626c653a206e6577206f776e657220697320746865207a65726f206160448201527f6464726573730000000000000000000000000000000000000000000000000000606482015260840161051b565b6111388161139c565b50565b815183511461119d5760405162461bcd60e51b815260206004820152602860248201527f455243313135353a2069647320616e6420616d6f756e7473206c656e677468206044820152670dad2e6dac2e8c6d60c31b606482015260840161051b565b6001600160a01b0384166112015760405162461bcd60e51b815260206004820152602560248201527f455243313135353a207472616e7366657220746f20746865207a65726f206164604482015264647265737360d81b606482015260840161051b565b3360005b845181101561132e57600085828151811061122257611222612566565b60200260200101519050600085838151811061124057611240612566565b60209081029190910181015160008481526065835260408082206001600160a01b038e1683529093529190912054909150818110156112d45760405162461bcd60e51b815260206004820152602a60248201527f455243313135353a20696e73756666696369656e742062616c616e636520666f60448201526939103a3930b739b332b960b11b606482015260840161051b565b60008381526065602090815260408083206001600160a01b038e8116855292528083208585039055908b16825281208054849290611313908490612625565b925050819055505050508061132790612592565b9050611205565b50846001600160a01b0316866001600160a01b0316826001600160a01b03167f4a39dc06d4c0dbc64b70af90fd698a233a518aa5d07e595d983b8c0526c8f7fb878760405161137e92919061263d565b60405180910390a4611394818787878787611a6f565b505050505050565b609780546001600160a01b0383811673ffffffffffffffffffffffffffffffffffffffff19831681179093556040519116919082907f8be0079c531659141344cd1fd0a4f28419497f9722a3daafe3b4186f6b6457e090600090a35050565b6001600160a01b03841661145b5760405162461bcd60e51b815260206004820152602160248201527f455243313135353a206d696e7420746f20746865207a65726f206164647265736044820152607360f81b606482015260840161051b565b336114758160008761146c88611c15565b61083088611c15565b60008481526065602090815260408083206001600160a01b0389168452909152812080548592906114a7908490612625565b909155505060408051858152602081018590526001600160a01b0380881692600092918516917fc3d58168c5ae7397731d063d5bbf3d657854427343f4c083240f7aacaa2d0f62910160405180910390a461083081600087878787611c60565b60006115138284612625565b9392505050565b816001600160a01b0316836001600160a01b031614156115a25760405162461bcd60e51b815260206004820152602960248201527f455243313135353a2073657474696e6720617070726f76616c2073746174757360448201527f20666f722073656c660000000000000000000000000000000000000000000000606482015260840161051b565b6001600160a01b03838116600081815260666020908152604080832094871680845294825291829020805460ff191686151590811790915591519182527f17307eab39ab6107e8899845ad3d59bd9653f200f220920489ca2b5937696c31910160405180910390a3505050565b6001600160a01b03841661166f5760405162461bcd60e51b815260206004820152602160248201527f455243313135353a206d696e7420746f20746865207a65726f206164647265736044820152607360f81b606482015260840161051b565b81518351146116d15760405162461bcd60e51b815260206004820152602860248201527f455243313135353a2069647320616e6420616d6f756e7473206c656e677468206044820152670dad2e6dac2e8c6d60c31b606482015260840161051b565b3360005b845181101561176e578381815181106116f0576116f0612566565b60200260200101516065600087848151811061170e5761170e612566565b602002602001015181526020019081526020016000206000886001600160a01b03166001600160a01b0316815260200190815260200160002060008282546117569190612625565b9091555081905061176681612592565b9150506116d5565b50846001600160a01b031660006001600160a01b0316826001600160a01b03167f4a39dc06d4c0dbc64b70af90fd698a233a518aa5d07e595d983b8c0526c8f7fb87876040516117bf92919061263d565b60405180910390a461083081600087878787611a6f565b600081815260ca602052604090205481906001600160a01b031633146118645760405162461bcd60e51b815260206004820152602a60248201527f417274546f6b656e2363726561746f724f6e6c793a204f4e4c595f435245415460448201527f4f525f414c4c4f57454400000000000000000000000000000000000000000000606482015260840161051b565b50600090815260ca60205260409020805473ffffffffffffffffffffffffffffffffffffffff19166001600160a01b0392909216919091179055565b60c9546000906118b1906001611507565b905090565b60c980549060006118c683612592565b9190505550565b6001600160a01b0384166119315760405162461bcd60e51b815260206004820152602560248201527f455243313135353a207472616e7366657220746f20746865207a65726f206164604482015264647265737360d81b606482015260840161051b565b3361194181878761146c88611c15565b60008481526065602090815260408083206001600160a01b038a168452909152902054838110156119c75760405162461bcd60e51b815260206004820152602a60248201527f455243313135353a20696e73756666696369656e742062616c616e636520666f60448201526939103a3930b739b332b960b11b606482015260840161051b565b60008581526065602090815260408083206001600160a01b038b8116855292528083208785039055908816825281208054869290611a06908490612625565b909155505060408051868152602081018690526001600160a01b03808916928a821692918616917fc3d58168c5ae7397731d063d5bbf3d657854427343f4c083240f7aacaa2d0f62910160405180910390a4611a66828888888888611c60565b50505050505050565b6001600160a01b0384163b156113945760405163bc197c8160e01b81526001600160a01b0385169063bc197c8190611ab3908990899088908890889060040161266b565b6020604051808303816000875af1925050508015611aee575060408051601f3d908101601f19168201909252611aeb918101906126c9565b60015b611ba457611afa6126e6565b806308c379a01415611b345750611b0f612702565b80611b1a5750611b36565b8060405162461bcd60e51b815260040161051b9190611ebb565b505b60405162461bcd60e51b815260206004820152603460248201527f455243313135353a207472616e7366657220746f206e6f6e204552433131353560448201527f526563656976657220696d706c656d656e746572000000000000000000000000606482015260840161051b565b6001600160e01b0319811663bc197c8160e01b14611a665760405162461bcd60e51b815260206004820152602860248201527f455243313135353a204552433131353552656365697665722072656a656374656044820152676420746f6b656e7360c01b606482015260840161051b565b60408051600180825281830190925260609160009190602080830190803683370190505090508281600081518110611c4f57611c4f612566565b602090810291909101015292915050565b6001600160a01b0384163b156113945760405163f23a6e6160e01b81526001600160a01b0385169063f23a6e6190611ca4908990899088908890889060040161278c565b6020604051808303816000875af1925050508015611cdf575060408051601f3d908101601f19168201909252611cdc918101906126c9565b60015b611ceb57611afa6126e6565b6001600160e01b0319811663f23a6e6160e01b14611a665760405162461bcd60e51b815260206004820152602860248201527f455243313135353a204552433131353552656365697665722072656a656374656044820152676420746f6b656e7360c01b606482015260840161051b565b828054611d689061252b565b90600052602060002090601f016020900481019282611d8a5760008555611dd0565b82601f10611da35782800160ff19823516178555611dd0565b82800160010185558215611dd0579182015b82811115611dd0578235825591602001919060010190611db5565b50611ddc929150611de0565b5090565b5b80821115611ddc5760008155600101611de1565b80356001600160a01b0381168114611e0c57600080fd5b919050565b60008060408385031215611e2457600080fd5b611e2d83611df5565b946020939093013593505050565b6001600160e01b03198116811461113857600080fd5b600060208284031215611e6357600080fd5b813561151381611e3b565b6000815180845260005b81811015611e9457602081850181015186830182015201611e78565b81811115611ea6576000602083870101525b50601f01601f19169290920160200192915050565b6020815260006115136020830184611e6e565b600060208284031215611ee057600080fd5b5035919050565b634e487b7160e01b600052604160045260246000fd5b601f8201601f1916810167ffffffffffffffff81118282101715611f2357611f23611ee7565b6040525050565b600067ffffffffffffffff821115611f4457611f44611ee7565b5060051b60200190565b600082601f830112611f5f57600080fd5b81356020611f6c82611f2a565b604051611f798282611efd565b83815260059390931b8501820192828101915086841115611f9957600080fd5b8286015b84811015611fb45780358352918301918301611f9d565b509695505050505050565b600082601f830112611fd057600080fd5b813567ffffffffffffffff811115611fea57611fea611ee7565b604051612001601f8301601f191660200182611efd565b81815284602083860101111561201657600080fd5b816020850160208301376000918101602001919091529392505050565b600080600080600060a0868803121561204b57600080fd5b61205486611df5565b945061206260208701611df5565b9350604086013567ffffffffffffffff8082111561207f57600080fd5b61208b89838a01611f4e565b945060608801359150808211156120a157600080fd5b6120ad89838a01611f4e565b935060808801359150808211156120c357600080fd5b506120d088828901611fbf565b9150509295509295909350565b600080604083850312156120f057600080fd5b823567ffffffffffffffff8082111561210857600080fd5b818501915085601f83011261211c57600080fd5b8135602061212982611f2a565b6040516121368282611efd565b83815260059390931b850182019282810191508984111561215657600080fd5b948201945b8386101561217b5761216c86611df5565b8252948201949082019061215b565b9650508601359250508082111561219157600080fd5b5061219e85828601611f4e565b9150509250929050565b600081518084526020808501945080840160005b838110156121d8578151875295820195908201906001016121bc565b509495945050505050565b60208152600061151360208301846121a8565b6000806000806080858703121561220c57600080fd5b61221585611df5565b93506020850135925060408501359150606085013567ffffffffffffffff81111561223f57600080fd5b61224b87828801611fbf565b91505092959194509250565b6000806040838503121561226a57600080fd5b61227383611df5565b91506020830135801515811461228857600080fd5b809150509250929050565b600080600080608085870312156122a957600080fd5b6122b285611df5565b9350602085013567ffffffffffffffff808211156122cf57600080fd5b6122db88838901611f4e565b945060408701359150808211156122f157600080fd5b6122fd88838901611f4e565b9350606087013591508082111561231357600080fd5b5061224b87828801611fbf565b6001600160a01b038616815284602082015260a06040820152600061234860a0830186611e6e565b6060830194909452509015156080909101529392505050565b6000806040838503121561237457600080fd5b61237d83611df5565b9150602083013567ffffffffffffffff81111561239957600080fd5b61219e85828601611f4e565b60008083601f8401126123b757600080fd5b50813567ffffffffffffffff8111156123cf57600080fd5b6020830191508360208285010111156123e757600080fd5b9250929050565b6000806000806000806080878903121561240757600080fd5b61241087611df5565b955060208701359450604087013567ffffffffffffffff8082111561243457600080fd5b6124408a838b016123a5565b9096509450606089013591508082111561245957600080fd5b5061246689828a016123a5565b979a9699509497509295939492505050565b6000806040838503121561248b57600080fd5b61249483611df5565b91506124a260208401611df5565b90509250929050565b600080600080600060a086880312156124c357600080fd5b6124cc86611df5565b94506124da60208701611df5565b93506040860135925060608601359150608086013567ffffffffffffffff81111561250457600080fd5b6120d088828901611fbf565b60006020828403121561252257600080fd5b61151382611df5565b600181811c9082168061253f57607f821691505b6020821081141561256057634e487b7160e01b600052602260045260246000fd5b50919050565b634e487b7160e01b600052603260045260246000fd5b634e487b7160e01b600052601160045260246000fd5b60006000198214156125a6576125a661257c565b5060010190565b81835281816020850137506000828201602090810191909152601f909101601f19169091010190565b6020815260006125ea6020830184866125ad565b949350505050565b8481526001600160a01b038416602082015260606040820152600061261b6060830184866125ad565b9695505050505050565b600082198211156126385761263861257c565b500190565b60408152600061265060408301856121a8565b828103602084015261266281856121a8565b95945050505050565b60006001600160a01b03808816835280871660208401525060a0604083015261269760a08301866121a8565b82810360608401526126a981866121a8565b905082810360808401526126bd8185611e6e565b98975050505050505050565b6000602082840312156126db57600080fd5b815161151381611e3b565b600060033d11156126ff5760046000803e5060005160e01c5b90565b600060443d10156127105790565b6040516003193d81016004833e81513d67ffffffffffffffff816024840111818411171561274057505050505090565b82850191508151818111156127585750505050505090565b843d87010160208285010111156127725750505050505090565b61278160208286010187611efd565b509095945050505050565b60006001600160a01b03808816835280871660208401525084604083015283606083015260a06080830152610fb360a0830184611e6e56fea26469706673582212208b19eca5e1934cb4e04db026433766d2c467dd52128b1ba0eba3ecea26d10d1664736f6c634300080b0033",
  "immutableReferences": {},
  "source": "// SPDX-License-Identifier: MIT\npragma solidity ^0.8.11;\n\nimport \"@openzeppelin/contracts-upgradeable/access/OwnableUpgradeable.sol\";\nimport \"@openzeppelin/contracts-upgradeable/token/ERC1155/ERC1155Upgradeable.sol\";\nimport \"@openzeppelin/contracts-upgradeable/utils/math/SafeMathUpgradeable.sol\";\n\nimport \"./Strings.sol\";\n\n\n/// @title ArtToken\ncontract ArtToken is ERC1155Upgradeable, OwnableUpgradeable {\n    using SafeMathUpgradeable for uint256;\n    using ERC1155Strings for string;\n\n    event TokenCreated(uint256 tokenId, address creator, string uri);\n\n    event MetadataFrozen(uint256 tokenId);\n\n    uint256 private _currentTokenID = 0;\n    mapping (uint256 => address) public creators;\n    mapping (uint256 => uint256) public tokenSupply;\n    mapping (uint256 => string) public uris;\n    mapping (uint256 => bool) public isMetadataFrozen;\n\n    // Contract name\n    string public name;\n    // Contract symbol\n    string public symbol;\n\n    /// @dev Require msg.sender to be the creator of the token id\n    modifier creatorOnly(uint256 _id) {\n        require(creators[_id] == msg.sender, \"ArtToken#creatorOnly: ONLY_CREATOR_ALLOWED\");\n        _;\n    }\n\n    modifier operatorOnly(uint256 _id) {\n        bool isCreator = creators[_id] == msg.sender;\n        bool isOperator = isApprovedForAll(creators[_id], msg.sender);\n        require(isCreator || isOperator, \"ArtToken#operatorOnly: ONLY_OPERATOR_ALLOWED\");\n        _;\n    }\n\n    /// @dev Require msg.sender to own more than 0 of the token id\n    modifier ownersOnly(uint256 _id) {\n        require(balanceOf(msg.sender, _id) > 0, \"ArtToken#ownersOnly: ONLY_OWNERS_ALLOWED\");\n        _;\n    }\n\n    constructor(string memory _name, string memory _symbol) ERC1155Upgradeable() {\n        name = _name;\n        symbol = _symbol;\n    }\n\n    function getTokenDetails(uint256 _id) public view returns(\n        address, uint256, string memory, uint256, bool\n    ) {\n        return (\n            address(this),\n            _id,\n            \"ERC1155\",\n            getChainID(),\n            isMetadataFrozen[_id]\n        );\n    }\n\n    function uri(uint256 _id) public view override returns (string memory) {\n        require(exists(_id), \"ArtToken#uri: NONEXISTENT_TOKEN\");\n        return uris[_id];\n    }\n\n    /// @dev Returns the total quantity for a token ID\n    /// @param _id uint256 ID of the token to query\n    /// @return amount of token in existence\n    function totalSupply(uint256 _id) public view returns (uint256) {\n        return tokenSupply[_id];\n    }\n\n    /// @dev Creates a new token type and assigns _initialSupply to an address\n    /// @param _initialOwner address of the first owner of the token\n    /// @param _initialSupply amount to supply the first owner\n    /// @param _uri Optional URI for this token type\n    /// @param _data Data to pass if receiver is contract\n    /// @return The newly created token ID\n    function create(\n        address _initialOwner,\n        uint256 _initialSupply,\n        string calldata _uri,\n        bytes calldata _data\n    ) external returns (uint256) {\n        uint256 _id = _getNextTokenID();\n        _incrementTokenTypeId();\n        creators[_id] = msg.sender;\n\n        if (bytes(_uri).length > 0) {\n            uris[_id] = _uri;\n            emit URI(_uri, _id);\n        }\n\n        isMetadataFrozen[_id] = false;\n\n        emit TokenCreated(_id, msg.sender, _uri);\n\n        if (_initialOwner != address(0) && _initialSupply != 0) {\n            _mint(_initialOwner, _id, _initialSupply, _data);\n            tokenSupply[_id] = _initialSupply;\n        }\n        return _id;\n    }\n\n    /// @dev Freeze NFT metadata (the metadata cannot be de-freeze later)\n    /// @custom:ref https://support.opensea.io/hc/en-us/articles/1500012270982-What-is-Freezing-Metadata-\n    /// @custom:ref https://soliditydeveloper.com/ipfs\n    function freezeMetadata(uint256 _id) external {\n        require(\n            creators[_id] == msg.sender,\n            \"ArtToken.freezeMetadata# UNAUTHORIZED_ACCESS_TO_FREEZE_METADATA\"\n        );\n        require(\n            !isMetadataFrozen[_id],\n            \"ArtToken.freezeMetadata# CANNOT_FREEZE_FROZEN_METADATA\"\n        );\n        isMetadataFrozen[_id] = true;\n        emit MetadataFrozen(_id);\n    }\n\n    /// @dev Mints some amount of tokens to an address\n    /// @param _to          Address of the future owner of the token\n    /// @param _id          Token ID to mint\n    /// @param _quantity    Amount of tokens to mint\n    /// @param _data        Data to pass if receiver is contract\n    function mint(\n        address _to,\n        uint256 _id,\n        uint256 _quantity,\n        bytes memory _data\n    ) public operatorOnly(_id) {\n        _mint(_to, _id, _quantity, _data);\n        tokenSupply[_id] = tokenSupply[_id].add(_quantity);\n    }\n\n    /// @dev Mint tokens for each id in _ids\n    /// @param _to          The address to mint tokens to\n    /// @param _ids         Array of ids to mint\n    /// @param _quantities  Array of amounts of tokens to mint per id\n    /// @param _data        Data to pass if receiver is contract\n    function batchMint(\n        address _to,\n        uint256[] memory _ids,\n        uint256[] memory _quantities,\n        bytes memory _data\n    ) public {\n        for (uint256 i = 0; i < _ids.length; i++) {\n            uint256 _id = _ids[i];\n\n            bool isCreator = creators[_id] == msg.sender;\n            bool isOperator = isApprovedForAll(creators[_id], msg.sender);\n            require(isCreator || isOperator, \"ArtToken#operatorOnly: ONLY_OPERATOR_ALLOWED\");\n            \n            uint256 quantity = _quantities[i];\n            tokenSupply[_id] = tokenSupply[_id].add(quantity);\n        }\n        _mintBatch(_to, _ids, _quantities, _data);\n    }\n\n    /// @dev Change the creator address for given tokens\n    /// @param _to   Address of the new creator\n    /// @param _ids  Array of Token IDs to change creator\n    function setCreator(address _to, uint256[] memory _ids) public {\n        require(_to != address(0), \"ArtToken#setCreator: INVALID_ADDRESS\");\n        for (uint256 i = 0; i < _ids.length; i++) {\n            uint256 id = _ids[i];\n            _setCreator(_to, id);\n        }\n    }\n\n    /// @dev Change the creator address for given token\n    /// @param _to   Address of the new creator\n    /// @param _id  Token IDs to change creator of\n    function _setCreator(address _to, uint256 _id) internal creatorOnly(_id) {\n        creators[_id] = _to;\n    }\n\n    /// @dev Returns whether the specified token exists by checking to see if it has a creator\n    /// @param _id uint256 ID of the token to query the existence of\n    /// @return bool whether the token exists\n    function exists(uint256 _id) public view returns (bool) {\n        return creators[_id] != address(0);\n    }\n\n    /// @notice Returns the chain id of the current blockchain.\n    /// @dev This is used to workaround an issue with ganache returning different values from the on-chain chainid() function and\n    ///  the eth_chainId RPC method. See https://github.com/protocol/nft-website/issues/121 for context.\n    function getChainID() public view returns (uint256) {\n        uint256 id;\n        assembly {\n            id := chainid()\n        }\n        return id;\n    }\n\n    /// @dev calculates the next token ID based on value of _currentTokenID\n    /// @return uint256 for the next token ID\n    function _getNextTokenID() private view returns (uint256) {\n        return _currentTokenID.add(1);\n    }\n\n    /// @dev increments the value of _currentTokenID\n    function _incrementTokenTypeId() private  {\n        _currentTokenID++;\n    }\n}",
  "sourcePath": "/home/giangh/Desktop/Projects/marketplace/contracts/ArtToken.sol",
  "compiler": {
    "name": "solc",
    "version": "0.8.11+commit.d7f03943.Emscripten.clang"
  },
  "schemaVersion": "3.4.6",
  "updatedAt": "2022-03-18T16:45:33.803Z",
  "networkType": "ethereum",
  "devdoc": {
    "kind": "dev",
    "methods": {
      "balanceOf(address,uint256)": {
        "details": "See {IERC1155-balanceOf}. Requirements: - `account` cannot be the zero address."
      },
      "balanceOfBatch(address[],uint256[])": {
        "details": "See {IERC1155-balanceOfBatch}. Requirements: - `accounts` and `ids` must have the same length."
      },
      "batchMint(address,uint256[],uint256[],bytes)": {
        "details": "Mint tokens for each id in _ids",
        "params": {
          "_data": "Data to pass if receiver is contract",
          "_ids": "Array of ids to mint",
          "_quantities": "Array of amounts of tokens to mint per id",
          "_to": "The address to mint tokens to"
        }
      },
      "create(address,uint256,string,bytes)": {
        "details": "Creates a new token type and assigns _initialSupply to an address",
        "params": {
          "_data": "Data to pass if receiver is contract",
          "_initialOwner": "address of the first owner of the token",
          "_initialSupply": "amount to supply the first owner",
          "_uri": "Optional URI for this token type"
        },
        "returns": {
          "_0": "The newly created token ID"
        }
      },
      "exists(uint256)": {
        "details": "Returns whether the specified token exists by checking to see if it has a creator",
        "params": {
          "_id": "uint256 ID of the token to query the existence of"
        },
        "returns": {
          "_0": "bool whether the token exists"
        }
      },
      "freezeMetadata(uint256)": {
        "custom:ref": "https://support.opensea.io/hc/en-us/articles/1500012270982-What-is-Freezing-Metadata-https://soliditydeveloper.com/ipfs",
        "details": "Freeze NFT metadata (the metadata cannot be de-freeze later)"
      },
      "getChainID()": {
        "details": "This is used to workaround an issue with ganache returning different values from the on-chain chainid() function and  the eth_chainId RPC method. See https://github.com/protocol/nft-website/issues/121 for context."
      },
      "isApprovedForAll(address,address)": {
        "details": "See {IERC1155-isApprovedForAll}."
      },
      "mint(address,uint256,uint256,bytes)": {
        "details": "Mints some amount of tokens to an address",
        "params": {
          "_data": "Data to pass if receiver is contract",
          "_id": "Token ID to mint",
          "_quantity": "Amount of tokens to mint",
          "_to": "Address of the future owner of the token"
        }
      },
      "owner()": {
        "details": "Returns the address of the current owner."
      },
      "renounceOwnership()": {
        "details": "Leaves the contract without owner. It will not be possible to call `onlyOwner` functions anymore. Can only be called by the current owner. NOTE: Renouncing ownership will leave the contract without an owner, thereby removing any functionality that is only available to the owner."
      },
      "safeBatchTransferFrom(address,address,uint256[],uint256[],bytes)": {
        "details": "See {IERC1155-safeBatchTransferFrom}."
      },
      "safeTransferFrom(address,address,uint256,uint256,bytes)": {
        "details": "See {IERC1155-safeTransferFrom}."
      },
      "setApprovalForAll(address,bool)": {
        "details": "See {IERC1155-setApprovalForAll}."
      },
      "setCreator(address,uint256[])": {
        "details": "Change the creator address for given tokens",
        "params": {
          "_ids": "Array of Token IDs to change creator",
          "_to": "Address of the new creator"
        }
      },
      "supportsInterface(bytes4)": {
        "details": "See {IERC165-supportsInterface}."
      },
      "totalSupply(uint256)": {
        "details": "Returns the total quantity for a token ID",
        "params": {
          "_id": "uint256 ID of the token to query"
        },
        "returns": {
          "_0": "amount of token in existence"
        }
      },
      "transferOwnership(address)": {
        "details": "Transfers ownership of the contract to a new account (`newOwner`). Can only be called by the current owner."
      }
    },
    "title": "ArtToken",
    "version": 1
  },
  "userdoc": {
    "kind": "user",
    "methods": {
      "getChainID()": {
        "notice": "Returns the chain id of the current blockchain."
      }
    },
    "version": 1
  }
}