{
  "contractName": "Marketplace",
  "abi": [
    {
      "anonymous": false,
      "inputs": [
        {
          "indexed": false,
          "internalType": "uint256",
          "name": "auctionId",
          "type": "uint256"
        },
        {
          "indexed": false,
          "internalType": "uint256",
          "name": "_bidId",
          "type": "uint256"
        }
      ],
      "name": "AuctionSettled",
      "type": "event"
    },
    {
      "anonymous": false,
      "inputs": [
        {
          "indexed": false,
          "internalType": "uint256",
          "name": "auctionId",
          "type": "uint256"
        }
      ],
      "name": "AuctionStopped",
      "type": "event"
    },
    {
      "anonymous": false,
      "inputs": [
        {
          "indexed": false,
          "internalType": "uint256",
          "name": "auctionId",
          "type": "uint256"
        }
      ],
      "name": "AuctionWithdrawn",
      "type": "event"
    },
    {
      "anonymous": false,
      "inputs": [
        {
          "indexed": false,
          "internalType": "uint256",
          "name": "auctionId",
          "type": "uint256"
        },
        {
          "indexed": false,
          "internalType": "uint256",
          "name": "bidId",
          "type": "uint256"
        },
        {
          "indexed": false,
          "internalType": "address",
          "name": "bidder",
          "type": "address"
        },
        {
          "indexed": false,
          "internalType": "uint256",
          "name": "ethAmount",
          "type": "uint256"
        }
      ],
      "name": "BidMade",
      "type": "event"
    },
    {
      "anonymous": false,
      "inputs": [
        {
          "indexed": false,
          "internalType": "uint256",
          "name": "auctionId",
          "type": "uint256"
        },
        {
          "indexed": false,
          "internalType": "uint256",
          "name": "bidId",
          "type": "uint256"
        }
      ],
      "name": "BidWithdrawn",
      "type": "event"
    },
    {
      "anonymous": false,
      "inputs": [
        {
          "indexed": false,
          "internalType": "uint256",
          "name": "auctionId",
          "type": "uint256"
        },
        {
          "indexed": false,
          "internalType": "uint128",
          "name": "newBuyNowPrice",
          "type": "uint128"
        }
      ],
      "name": "BuyNowPriceUpdated",
      "type": "event"
    },
    {
      "anonymous": false,
      "inputs": [
        {
          "indexed": false,
          "internalType": "uint256",
          "name": "ethAmount",
          "type": "uint256"
        },
        {
          "indexed": false,
          "internalType": "uint256",
          "name": "tokenAmount",
          "type": "uint256"
        }
      ],
      "name": "CreditWithdrawn",
      "type": "event"
    },
    {
      "anonymous": false,
      "inputs": [
        {
          "indexed": false,
          "internalType": "uint256",
          "name": "auctionId",
          "type": "uint256"
        }
      ],
      "name": "DecliningPriceSaleCreated",
      "type": "event"
    },
    {
      "anonymous": false,
      "inputs": [
        {
          "indexed": false,
          "internalType": "address",
          "name": "erc20TokenForAuction",
          "type": "address"
        }
      ],
      "name": "ERC20TokenForAuctionChanged",
      "type": "event"
    },
    {
      "anonymous": false,
      "inputs": [
        {
          "indexed": false,
          "internalType": "uint256",
          "name": "marketplaceFeePortion",
          "type": "uint256"
        }
      ],
      "name": "MarketplaceFeePortionChanged",
      "type": "event"
    },
    {
      "anonymous": false,
      "inputs": [
        {
          "indexed": false,
          "internalType": "address",
          "name": "marketplaceWallet",
          "type": "address"
        }
      ],
      "name": "MarketplaceWalletChanged",
      "type": "event"
    },
    {
      "anonymous": false,
      "inputs": [
        {
          "indexed": false,
          "internalType": "uint256",
          "name": "auctionId",
          "type": "uint256"
        },
        {
          "indexed": false,
          "internalType": "uint256",
          "name": "newMinPrice",
          "type": "uint256"
        }
      ],
      "name": "MinimumPriceUpdated",
      "type": "event"
    },
    {
      "anonymous": false,
      "inputs": [
        {
          "indexed": false,
          "internalType": "uint256",
          "name": "auctionId",
          "type": "uint256"
        },
        {
          "indexed": false,
          "internalType": "uint256",
          "name": "bidId",
          "type": "uint256"
        },
        {
          "indexed": false,
          "internalType": "uint256[]",
          "name": "tokenIds",
          "type": "uint256[]"
        },
        {
          "indexed": false,
          "internalType": "uint256[]",
          "name": "quantities",
          "type": "uint256[]"
        },
        {
          "indexed": false,
          "internalType": "uint256",
          "name": "price",
          "type": "uint256"
        },
        {
          "indexed": false,
          "internalType": "address",
          "name": "to",
          "type": "address"
        },
        {
          "indexed": false,
          "internalType": "address",
          "name": "from",
          "type": "address"
        },
        {
          "indexed": false,
          "internalType": "uint256",
          "name": "blockTimestamp",
          "type": "uint256"
        }
      ],
      "name": "NFTTransferredAndSellerPaid",
      "type": "event"
    },
    {
      "anonymous": false,
      "inputs": [
        {
          "indexed": false,
          "internalType": "uint256",
          "name": "auctionId",
          "type": "uint256"
        }
      ],
      "name": "NftAuctionCreated",
      "type": "event"
    },
    {
      "anonymous": false,
      "inputs": [
        {
          "indexed": false,
          "internalType": "address",
          "name": "nftContractAddress",
          "type": "address"
        },
        {
          "indexed": false,
          "internalType": "bool",
          "name": "isTrusted",
          "type": "bool"
        }
      ],
      "name": "NftTokenContractTrusted",
      "type": "event"
    },
    {
      "anonymous": false,
      "inputs": [
        {
          "indexed": false,
          "internalType": "uint256",
          "name": "auctionId",
          "type": "uint256"
        },
        {
          "indexed": false,
          "internalType": "uint256",
          "name": "bidId",
          "type": "uint256"
        }
      ],
      "name": "OfferTaken",
      "type": "event"
    },
    {
      "anonymous": false,
      "inputs": [
        {
          "indexed": true,
          "internalType": "address",
          "name": "previousOwner",
          "type": "address"
        },
        {
          "indexed": true,
          "internalType": "address",
          "name": "newOwner",
          "type": "address"
        }
      ],
      "name": "OwnershipTransferred",
      "type": "event"
    },
    {
      "anonymous": false,
      "inputs": [
        {
          "indexed": false,
          "internalType": "uint256",
          "name": "auctionId",
          "type": "uint256"
        }
      ],
      "name": "SaleCreated",
      "type": "event"
    },
    {
      "anonymous": false,
      "inputs": [
        {
          "indexed": false,
          "internalType": "uint256",
          "name": "auctionId",
          "type": "uint256"
        },
        {
          "indexed": false,
          "internalType": "address",
          "name": "newWhitelistedBuyer",
          "type": "address"
        }
      ],
      "name": "WhitelistedBuyerUpdated",
      "type": "event"
    },
    {
      "inputs": [
        {
          "internalType": "uint256",
          "name": "",
          "type": "uint256"
        },
        {
          "internalType": "uint256",
          "name": "",
          "type": "uint256"
        }
      ],
      "name": "auctionToBid",
      "outputs": [
        {
          "internalType": "address",
          "name": "bidder",
          "type": "address"
        },
        {
          "internalType": "uint256",
          "name": "bid",
          "type": "uint256"
        },
        {
          "internalType": "address",
          "name": "nftRecipient",
          "type": "address"
        },
        {
          "internalType": "bool",
          "name": "isOffer",
          "type": "bool"
        }
      ],
      "stateMutability": "view",
      "type": "function",
      "constant": true
    },
    {
      "inputs": [],
      "name": "defaultBidIncreasePercentage",
      "outputs": [
        {
          "internalType": "uint32",
          "name": "",
          "type": "uint32"
        }
      ],
      "stateMutability": "view",
      "type": "function",
      "constant": true
    },
    {
      "inputs": [],
      "name": "erc20TokenForAuction",
      "outputs": [
        {
          "internalType": "address",
          "name": "",
          "type": "address"
        }
      ],
      "stateMutability": "view",
      "type": "function",
      "constant": true
    },
    {
      "inputs": [
        {
          "internalType": "address",
          "name": "",
          "type": "address"
        }
      ],
      "name": "ethCredits",
      "outputs": [
        {
          "internalType": "uint256",
          "name": "",
          "type": "uint256"
        }
      ],
      "stateMutability": "view",
      "type": "function",
      "constant": true
    },
    {
      "inputs": [
        {
          "internalType": "uint256",
          "name": "",
          "type": "uint256"
        }
      ],
      "name": "idToAuction",
      "outputs": [
        {
          "internalType": "uint8",
          "name": "auctionType",
          "type": "uint8"
        },
        {
          "internalType": "address",
          "name": "nftContractAddress",
          "type": "address"
        },
        {
          "internalType": "uint32",
          "name": "bidIncreasePercentage",
          "type": "uint32"
        },
        {
          "internalType": "uint128",
          "name": "minPrice",
          "type": "uint128"
        },
        {
          "internalType": "uint128",
          "name": "buyNowPrice",
          "type": "uint128"
        },
        {
          "internalType": "address",
          "name": "nftSeller",
          "type": "address"
        },
        {
          "internalType": "address",
          "name": "whitelistedBuyer",
          "type": "address"
        },
        {
          "internalType": "uint256",
          "name": "highestBidId",
          "type": "uint256"
        },
        {
          "internalType": "uint256",
          "name": "numBids",
          "type": "uint256"
        },
        {
          "internalType": "bool",
          "name": "isOnGoing",
          "type": "bool"
        },
        {
          "internalType": "uint256",
          "name": "startTime",
          "type": "uint256"
        },
        {
          "internalType": "uint256",
          "name": "decrementDuration",
          "type": "uint256"
        }
      ],
      "stateMutability": "view",
      "type": "function",
      "constant": true
    },
    {
      "inputs": [
        {
          "internalType": "address",
          "name": "",
          "type": "address"
        }
      ],
      "name": "isTrustedNftContract",
      "outputs": [
        {
          "internalType": "bool",
          "name": "",
          "type": "bool"
        }
      ],
      "stateMutability": "view",
      "type": "function",
      "constant": true
    },
    {
      "inputs": [],
      "name": "marketplaceFeePortion",
      "outputs": [
        {
          "internalType": "uint256",
          "name": "",
          "type": "uint256"
        }
      ],
      "stateMutability": "view",
      "type": "function",
      "constant": true
    },
    {
      "inputs": [],
      "name": "marketplaceWallet",
      "outputs": [
        {
          "internalType": "address",
          "name": "",
          "type": "address"
        }
      ],
      "stateMutability": "view",
      "type": "function",
      "constant": true
    },
    {
      "inputs": [],
      "name": "minimumSettableIncreasePercentage",
      "outputs": [
        {
          "internalType": "uint32",
          "name": "",
          "type": "uint32"
        }
      ],
      "stateMutability": "view",
      "type": "function",
      "constant": true
    },
    {
      "inputs": [],
      "name": "owner",
      "outputs": [
        {
          "internalType": "address",
          "name": "",
          "type": "address"
        }
      ],
      "stateMutability": "view",
      "type": "function",
      "constant": true
    },
    {
      "inputs": [],
      "name": "renounceOwnership",
      "outputs": [],
      "stateMutability": "nonpayable",
      "type": "function"
    },
    {
      "inputs": [
        {
          "internalType": "bytes4",
          "name": "interfaceId",
          "type": "bytes4"
        }
      ],
      "name": "supportsInterface",
      "outputs": [
        {
          "internalType": "bool",
          "name": "",
          "type": "bool"
        }
      ],
      "stateMutability": "view",
      "type": "function",
      "constant": true
    },
    {
      "inputs": [
        {
          "internalType": "address",
          "name": "",
          "type": "address"
        }
      ],
      "name": "tokenCredits",
      "outputs": [
        {
          "internalType": "uint256",
          "name": "",
          "type": "uint256"
        }
      ],
      "stateMutability": "view",
      "type": "function",
      "constant": true
    },
    {
      "inputs": [
        {
          "internalType": "address",
          "name": "newOwner",
          "type": "address"
        }
      ],
      "name": "transferOwnership",
      "outputs": [],
      "stateMutability": "nonpayable",
      "type": "function"
    },
    {
      "inputs": [
        {
          "internalType": "address",
          "name": "_marketplaceWallet",
          "type": "address"
        },
        {
          "internalType": "uint256",
          "name": "_marketplaceFeePortion",
          "type": "uint256"
        },
        {
          "internalType": "address",
          "name": "_erc20TokenForAuction",
          "type": "address"
        }
      ],
      "name": "initialize",
      "outputs": [],
      "stateMutability": "nonpayable",
      "type": "function"
    },
    {
      "inputs": [
        {
          "internalType": "address",
          "name": "operator",
          "type": "address"
        },
        {
          "internalType": "address",
          "name": "from",
          "type": "address"
        },
        {
          "internalType": "uint256",
          "name": "id",
          "type": "uint256"
        },
        {
          "internalType": "uint256",
          "name": "value",
          "type": "uint256"
        },
        {
          "internalType": "bytes",
          "name": "data",
          "type": "bytes"
        }
      ],
      "name": "onERC1155Received",
      "outputs": [
        {
          "internalType": "bytes4",
          "name": "",
          "type": "bytes4"
        }
      ],
      "stateMutability": "nonpayable",
      "type": "function"
    },
    {
      "inputs": [
        {
          "internalType": "address",
          "name": "operator",
          "type": "address"
        },
        {
          "internalType": "address",
          "name": "from",
          "type": "address"
        },
        {
          "internalType": "uint256[]",
          "name": "ids",
          "type": "uint256[]"
        },
        {
          "internalType": "uint256[]",
          "name": "values",
          "type": "uint256[]"
        },
        {
          "internalType": "bytes",
          "name": "data",
          "type": "bytes"
        }
      ],
      "name": "onERC1155BatchReceived",
      "outputs": [
        {
          "internalType": "bytes4",
          "name": "",
          "type": "bytes4"
        }
      ],
      "stateMutability": "nonpayable",
      "type": "function"
    },
    {
      "inputs": [
        {
          "internalType": "address",
          "name": "_marketplaceWallet",
          "type": "address"
        }
      ],
      "name": "setMarketplaceWallet",
      "outputs": [],
      "stateMutability": "nonpayable",
      "type": "function"
    },
    {
      "inputs": [
        {
          "internalType": "uint256",
          "name": "_marketplaceFeePortion",
          "type": "uint256"
        }
      ],
      "name": "setMarketplaceFeePortion",
      "outputs": [],
      "stateMutability": "nonpayable",
      "type": "function"
    },
    {
      "inputs": [
        {
          "internalType": "address",
          "name": "_erc20TokenForAuction",
          "type": "address"
        }
      ],
      "name": "setERC20TokenForAuction",
      "outputs": [],
      "stateMutability": "nonpayable",
      "type": "function"
    },
    {
      "inputs": [
        {
          "internalType": "address",
          "name": "_nftContractAddress",
          "type": "address"
        },
        {
          "internalType": "bool",
          "name": "_isTrusted",
          "type": "bool"
        }
      ],
      "name": "setTrustedNftContract",
      "outputs": [],
      "stateMutability": "nonpayable",
      "type": "function"
    },
    {
      "inputs": [
        {
          "internalType": "address",
          "name": "_nftContractAddress",
          "type": "address"
        },
        {
          "internalType": "uint256[]",
          "name": "_tokenIds",
          "type": "uint256[]"
        },
        {
          "internalType": "uint256[]",
          "name": "_quantities",
          "type": "uint256[]"
        },
        {
          "internalType": "uint128",
          "name": "_minPrice",
          "type": "uint128"
        },
        {
          "internalType": "uint128",
          "name": "_buyNowPrice",
          "type": "uint128"
        },
        {
          "internalType": "uint32",
          "name": "_bidIncreasePercentage",
          "type": "uint32"
        }
      ],
      "name": "createNftAuction",
      "outputs": [],
      "stateMutability": "nonpayable",
      "type": "function"
    },
    {
      "inputs": [
        {
          "internalType": "address",
          "name": "_nftContractAddress",
          "type": "address"
        },
        {
          "internalType": "uint256[]",
          "name": "_tokenIds",
          "type": "uint256[]"
        },
        {
          "internalType": "uint256[]",
          "name": "_quantities",
          "type": "uint256[]"
        },
        {
          "internalType": "uint128",
          "name": "_buyNowPrice",
          "type": "uint128"
        },
        {
          "internalType": "address",
          "name": "_whitelistedBuyer",
          "type": "address"
        }
      ],
      "name": "createSale",
      "outputs": [],
      "stateMutability": "nonpayable",
      "type": "function"
    },
    {
      "inputs": [
        {
          "internalType": "address",
          "name": "_nftContractAddress",
          "type": "address"
        },
        {
          "internalType": "uint256[]",
          "name": "_tokenIds",
          "type": "uint256[]"
        },
        {
          "internalType": "uint256[]",
          "name": "_quantities",
          "type": "uint256[]"
        },
        {
          "internalType": "uint128",
          "name": "_startPrice",
          "type": "uint128"
        },
        {
          "internalType": "uint128",
          "name": "_endPrice",
          "type": "uint128"
        },
        {
          "internalType": "uint128",
          "name": "_decrementDuration",
          "type": "uint128"
        }
      ],
      "name": "createDecliningPriceSale",
      "outputs": [],
      "stateMutability": "nonpayable",
      "type": "function"
    },
    {
      "inputs": [
        {
          "internalType": "uint256",
          "name": "_auctionId",
          "type": "uint256"
        },
        {
          "internalType": "address",
          "name": "_nftRecipient",
          "type": "address"
        },
        {
          "internalType": "uint128",
          "name": "_tokenAmount",
          "type": "uint128"
        },
        {
          "internalType": "bool",
          "name": "_isOffer",
          "type": "bool"
        }
      ],
      "name": "makeBid",
      "outputs": [],
      "stateMutability": "payable",
      "type": "function",
      "payable": true
    },
    {
      "inputs": [
        {
          "internalType": "uint256",
          "name": "_auctionId",
          "type": "uint256"
        }
      ],
      "name": "stopAuction",
      "outputs": [],
      "stateMutability": "nonpayable",
      "type": "function"
    },
    {
      "inputs": [
        {
          "internalType": "uint256",
          "name": "_auctionId",
          "type": "uint256"
        },
        {
          "internalType": "uint256",
          "name": "_bidId",
          "type": "uint256"
        },
        {
          "internalType": "bool",
          "name": "takeHighestBid",
          "type": "bool"
        }
      ],
      "name": "settleAuction",
      "outputs": [],
      "stateMutability": "nonpayable",
      "type": "function"
    },
    {
      "inputs": [
        {
          "internalType": "uint256",
          "name": "_auctionId",
          "type": "uint256"
        }
      ],
      "name": "withdrawAuction",
      "outputs": [],
      "stateMutability": "nonpayable",
      "type": "function"
    },
    {
      "inputs": [
        {
          "internalType": "uint256",
          "name": "_auctionId",
          "type": "uint256"
        },
        {
          "internalType": "uint256",
          "name": "_bidId",
          "type": "uint256"
        }
      ],
      "name": "withdrawBid",
      "outputs": [],
      "stateMutability": "nonpayable",
      "type": "function"
    },
    {
      "inputs": [
        {
          "internalType": "uint256",
          "name": "_auctionId",
          "type": "uint256"
        },
        {
          "internalType": "address",
          "name": "_newWhitelistedBuyer",
          "type": "address"
        }
      ],
      "name": "updateWhitelistedBuyer",
      "outputs": [],
      "stateMutability": "nonpayable",
      "type": "function"
    },
    {
      "inputs": [
        {
          "internalType": "uint256",
          "name": "_auctionId",
          "type": "uint256"
        },
        {
          "internalType": "uint128",
          "name": "_newMinPrice",
          "type": "uint128"
        }
      ],
      "name": "updateMinimumPrice",
      "outputs": [],
      "stateMutability": "nonpayable",
      "type": "function"
    },
    {
      "inputs": [
        {
          "internalType": "uint256",
          "name": "_auctionId",
          "type": "uint256"
        },
        {
          "internalType": "uint128",
          "name": "_newBuyNowPrice",
          "type": "uint128"
        }
      ],
      "name": "updateBuyNowPrice",
      "outputs": [],
      "stateMutability": "nonpayable",
      "type": "function"
    },
    {
      "inputs": [
        {
          "internalType": "uint256",
          "name": "_auctionId",
          "type": "uint256"
        },
        {
          "internalType": "uint256",
          "name": "_bidId",
          "type": "uint256"
        }
      ],
      "name": "takeOffer",
      "outputs": [],
      "stateMutability": "nonpayable",
      "type": "function"
    },
    {
      "inputs": [],
      "name": "withdrawAllCredits",
      "outputs": [],
      "stateMutability": "nonpayable",
      "type": "function"
    }
  ],
  "bytecode": "0x608060405234801561001057600080fd5b506152e9806100206000396000f3fe6080604052600436106102195760003560e01c80638da5cb5b1161011d578063d0fa8f2f116100b0578063f23a6e611161007f578063f510f6ae11610064578063f510f6ae146107f7578063f9583e9214610817578063fbd3438c1461083757600080fd5b8063f23a6e6114610791578063f2fde38b146107d757600080fd5b8063d0fa8f2f146106f3578063d1f7e37514610723578063ed9ed69614610738578063f0a55f2c1461076457600080fd5b8063b5fc9833116100ec578063b5fc983314610632578063bc197c8114610652578063c350a1b5146106b3578063ca4c64cf146106d357600080fd5b80638da5cb5b146105a35780639c0b9966146105d5578063a5735662146105f2578063aa07a82b1461061257600080fd5b80633d87d5fb116101b057806357b0e3521161017f578063715018a611610164578063715018a61461054e578063789ca2b6146105635780637e545fb41461058357600080fd5b806357b0e3521461050e578063624a3ea91461052e57600080fd5b80633d87d5fb1461048157806344b33aec146104bb5780634c95438f146104db578063579c01cc146104fb57600080fd5b806327c28b81116101ec57806327c28b81146103e657806337345b4314610406578063387552eb14610426578063395a01241461046157600080fd5b806301ffc9a71461021e578063089dc92c1461027d578063114575ca1461033157806314929b2e14610353575b600080fd5b34801561022a57600080fd5b506102686102393660046148e7565b6001600160e01b0319167f01ffc9a7000000000000000000000000000000000000000000000000000000001490565b60405190151581526020015b60405180910390f35b34801561028957600080fd5b50610319610298366004614911565b60ca6020526000908152604090208054600482015460058301546006840154600785015460088601546009870154600a880154600b890154600c9099015460ff808a169a6001600160a01b03610100909b048b169a63ffffffff8b169a6001600160801b0364010000000090910481169a169881169716959493909116918c565b6040516102749c9b9a9998979695949392919061492a565b34801561033d57600080fd5b5061035161034c3660046149bd565b61084d565b005b34801561035f57600080fd5b506103b161036e3660046149f6565b60cb6020908152600092835260408084209091529082529020805460018201546002909201546001600160a01b039182169291811690600160a01b900460ff1684565b60405161027494939291906001600160a01b039485168152602081019390935292166040820152901515606082015260800190565b3480156103f257600080fd5b506103516104013660046149f6565b610a39565b34801561041257600080fd5b50610351610421366004614a2d565b610cb0565b34801561043257600080fd5b50610453610441366004614a66565b60cd6020526000908152604090205481565b604051908152602001610274565b34801561046d57600080fd5b5061035161047c366004614a9f565b610d6e565b34801561048d57600080fd5b5060cf546104a690640100000000900463ffffffff1681565b60405163ffffffff9091168152602001610274565b3480156104c757600080fd5b506103516104d6366004614b7c565b611044565b3480156104e757600080fd5b506103516104f6366004614c18565b611484565b610351610509366004614c3d565b6116e3565b34801561051a57600080fd5b50610351610529366004614a9f565b611c45565b34801561053a57600080fd5b50610351610549366004614c8e565b611ef6565b34801561055a57600080fd5b506103516124d9565b34801561056f57600080fd5b5061035161057e366004614911565b61253f565b34801561058f57600080fd5b5061035161059e366004614a66565b6125d5565b3480156105af57600080fd5b506033546001600160a01b03165b6040516001600160a01b039091168152602001610274565b3480156105e157600080fd5b5060cf546104a69063ffffffff1681565b3480156105fe57600080fd5b5061035161060d3660046149f6565b6126f9565b34801561061e57600080fd5b5060d1546105bd906001600160a01b031681565b34801561063e57600080fd5b5061035161064d366004614911565b612a08565b34801561065e57600080fd5b5061069a61066d366004614dc3565b7fbc197c819b3e337a6f9652dd10becd7eef83032af3b9d958d3d42f669414662198975050505050505050565b6040516001600160e01b03199091168152602001610274565b3480156106bf57600080fd5b506103516106ce366004614e82565b612adb565b3480156106df57600080fd5b506103516106ee366004614a66565b612c00565b3480156106ff57600080fd5b5061026861070e366004614a66565b60cc6020526000908152604090205460ff1681565b34801561072f57600080fd5b50610351612d4d565b34801561074457600080fd5b5060cf546105bd906801000000000000000090046001600160a01b031681565b34801561077057600080fd5b5061045361077f366004614a66565b60ce6020526000908152604090205481565b34801561079d57600080fd5b5061069a6107ac366004614eb9565b7ff23a6e612e1ff4830e658fe43f4e3cb4a5f8170bd5d9e69fb5d7a7fa9e4fdf979695505050505050565b3480156107e357600080fd5b506103516107f2366004614a66565b612eda565b34801561080357600080fd5b50610351610812366004614911565b612fbc565b34801561082357600080fd5b50610351610832366004614f35565b6130ef565b34801561084357600080fd5b5061045360d05481565b600083815260ca602052604090206006015483906001600160a01b031633146108d05760405162461bcd60e51b815260206004820152602a60248201527f4d61726b6574706c6163652e6f6e6c794e667453656c6c657223204f4e4c595f60448201526927232a2fa9a2a62622a960b11b60648201526084015b60405180910390fd5b600084815260ca60205260409020600a015460ff16156109585760405162461bcd60e51b815260206004820152602b60248201527f4d61726b6574706c6163652e736574746c6541756374696f6e2320415543544960448201527f4f4e5f4e4f545f4f56455200000000000000000000000000000000000000000060648201526084016108c7565b811561097357600084815260ca602052604090206008015492505b61097d84846136bf565b6109ef5760405162461bcd60e51b815260206004820152602660248201527f4d61726b6574706c6163652e736574746c6541756374696f6e2320494e56414c60448201527f49445f424944000000000000000000000000000000000000000000000000000060648201526084016108c7565b6109f984846136e5565b60408051858152602081018590527f55efb9848a7b2ced6c81d35dffde0fd3c282f34aadd59d7150e313736dbf0ab691015b60405180910390a150505050565b600082815260ca60205260409020600a0154829060ff16610aae5760405162461bcd60e51b815260206004820152602960248201527f4d61726b6574706c6163652e61756374696f6e4f6e676f696e672320454e4445604482015268222fa0aaa1aa24a7a760b91b60648201526084016108c7565b600083815260ca602052604090206006015483906001600160a01b03163314610b2c5760405162461bcd60e51b815260206004820152602a60248201527f4d61726b6574706c6163652e6f6e6c794e667453656c6c657223204f4e4c595f60448201526927232a2fa9a2a62622a960b11b60648201526084016108c7565b600084815260ca602052604090205460ff1615610bd75760405162461bcd60e51b815260206004820152604260248201527f4d61726b6574706c6163652e74616b654f6666657223204f46464552535f415260448201527f455f414c4c4f5745445f4f4e4c595f494e5f46495845445f50524943455f534160648201527f4c45000000000000000000000000000000000000000000000000000000000000608482015260a4016108c7565b600084815260cb60209081526040808320868452909152902060020154600160a01b900460ff16610c705760405162461bcd60e51b815260206004820152602360248201527f4d61726b6574706c6163652e74616b654f6666657223204e4f545f414e5f4f4660448201527f464552000000000000000000000000000000000000000000000000000000000060648201526084016108c7565b610c7a84846136e5565b60408051858152602081018590527f6991afcfa70e981e34df7ec69f37073cc382854b4bf5cd72b42a24cdcce4e7569101610a2b565b6033546001600160a01b03163314610d0a5760405162461bcd60e51b815260206004820181905260248201527f4f776e61626c653a2063616c6c6572206973206e6f7420746865206f776e657260448201526064016108c7565b6001600160a01b038216600081815260cc6020908152604091829020805460ff19168515159081179091558251938452908301527f58128c77553bf7059dbc5d58d231bb93ba11116f48e72aa286fdfcb01290153291015b60405180910390a15050565b600082815260ca60205260409020600a0154829060ff16610de35760405162461bcd60e51b815260206004820152602960248201527f4d61726b6574706c6163652e61756374696f6e4f6e676f696e672320454e4445604482015268222fa0aaa1aa24a7a760b91b60648201526084016108c7565b600083815260ca602052604090206006015483906001600160a01b03163314610e615760405162461bcd60e51b815260206004820152602a60248201527f4d61726b6574706c6163652e6f6e6c794e667453656c6c657223204f4e4c595f60448201526927232a2fa9a2a62622a960b11b60648201526084016108c7565b600084815260ca60205260409020600401546001600160801b0380851691640100000000900416811580610e955750808210155b610f1a5760405162461bcd60e51b815260206004820152604a60248201527f4d61726b6574706c6163652e6d696e5072696365446f65734e6f74457863656560448201527f644c696d697423204d494e5f50524943455f4849474845525f5448414e5f4255606482015269594e4f575f505249434560b01b608482015260a4016108c7565b600086815260ca602052604090205460ff1660021415610fa25760405162461bcd60e51b815260206004820152603560248201527f4d61726b6574706c6163652e7570646174654275794e6f77507269636523204960448201527f4d4d555441424c455f4255594e4f575f5052494345000000000000000000000060648201526084016108c7565b600086815260ca602090815260409182902060050180546fffffffffffffffffffffffffffffffff19166001600160801b0389169081179091558251898152918201527f179476bcbd781422088b6439aee6b2a7fa466702dbe16845ce1e45de98b92195910160405180910390a1600086815260ca602052604090206008015461102c8782613981565b1561103b5761103b87826136e5565b50505050505050565b6001600160a01b038516600090815260cc6020526040902054859060ff166110d45760405162461bcd60e51b815260206004820152603b60248201527f4d61726b6574706c6163652e69734e6674436f6e74726163745472757374656460448201527f2320554e415554484f52495a45445f4e46545f434f4e5452414354000000000060648201526084016108c7565b8585858260005b83518110156112cf576000826001600160a01b031663cd53d08e86848151811061110757611107614fe9565b60200260200101516040518263ffffffff1660e01b815260040161112d91815260200190565b602060405180830381865afa15801561114a573d6000803e3d6000fd5b505050506040513d601f19601f8201168201806040525081019061116e9190614fff565b6001600160a01b0316336001600160a01b0316149050600084838151811061119857611198614fe9565b6020026020010151846001600160a01b031662fdd58e338987815181106111c1576111c1614fe9565b60200260200101516040518363ffffffff1660e01b81526004016111fa9291906001600160a01b03929092168252602082015260400190565b602060405180830381865afa158015611217573d6000803e3d6000fd5b505050506040513d601f19601f8201168201806040525081019061123b919061501c565b1015905081806112485750805b6112ba5760405162461bcd60e51b815260206004820152603b60248201527f4d61726b6574706c6163652e656e6f756768546f6b656e73466f7253616c652360448201527f204e4f545f454e4f5547485f544f4b454e535f464f525f53414c45000000000060648201526084016108c7565b505080806112c79061504b565b9150506110db565b506001600160a01b038a166113415760405162461bcd60e51b815260206004820152603260248201527f4d61726b6574706c6163652e63726561746553616c652320494e56414c49445f60448201527113919517d513d2d15397d0d3d395149050d560721b60648201526084016108c7565b600061134c60c95490565b600081815260ca6020908152604090912080546001600160a01b038f16610100026001600160a81b03199091161781558c51929350611393926001909101918d019061486d565b50600081815260ca602090815260409091208a516113b9926002909201918c019061486d565b50600081815260ca602052604090206005810180546001600160801b038b166fffffffffffffffffffffffffffffffff199091161790556006810180546001600160a01b031990811633179091556007820180546001600160a01b038b169216919091179055600a01805460ff1916600117905561143b60c980546001019055565b611444816139d8565b6040518181527f0f67e8677c172d56c079c18dcff5c9904d5ff20e6b5453eafe5f8dcc7ed6a0089060200160405180910390a15050505050505050505050565b600082815260ca60205260409020600a0154829060ff166114f95760405162461bcd60e51b815260206004820152602960248201527f4d61726b6574706c6163652e61756374696f6e4f6e676f696e672320454e4445604482015268222fa0aaa1aa24a7a760b91b60648201526084016108c7565b600083815260ca602052604090206006015483906001600160a01b031633146115775760405162461bcd60e51b815260206004820152602a60248201527f4d61726b6574706c6163652e6f6e6c794e667453656c6c657223204f4e4c595f60448201526927232a2fa9a2a62622a960b11b60648201526084016108c7565b600084815260ca602052604090205460ff16156115fc5760405162461bcd60e51b815260206004820152602e60248201527f4d61726b6574706c6163652e75706461746557686974656c697374656442757960448201527f657223204e4f545f415f53414c4500000000000000000000000000000000000060648201526084016108c7565b600084815260ca6020526040902060090154156116815760405162461bcd60e51b815260206004820152603760248201527f4d61726b6574706c6163652e75706461746557686974656c697374656442757960448201527f65722320415f4249445f4841535f4245454e5f4d41444500000000000000000060648201526084016108c7565b600084815260ca602090815260409182902060070180546001600160a01b0319166001600160a01b0387169081179091558251878152918201527f1728b961d096a1cc022789a90c6ff61568dfc1461c94dc18f8598974f0ddc9a29101610a2b565b600084815260ca60205260409020600a0154849060ff166117585760405162461bcd60e51b815260206004820152602960248201527f4d61726b6574706c6163652e61756374696f6e4f6e676f696e672320454e4445604482015268222fa0aaa1aa24a7a760b91b60648201526084016108c7565b600085815260ca60205260409020600601546001600160a01b03163314156117e85760405162461bcd60e51b815260206004820152602f60248201527f4d61726b6574706c6163652e6d616b65426964232053454c4c45525f43414e4e60448201527f4f545f4249445f4849535f53414c45000000000000000000000000000000000060648201526084016108c7565b6117f28584613cfe565b6118645760405162461bcd60e51b815260206004820152602960248201527f4d61726b6574706c6163652e6d616b6542696423204e4f545f4143434550544560448201527f445f5041594d454e54000000000000000000000000000000000000000000000060648201526084016108c7565b61186f858484613d4e565b6118e15760405162461bcd60e51b815260206004820152602b60248201527f4d61726b6574706c6163652e6d616b6542696423204e4f545f454e4f5547485f60448201527f46554e445f544f5f42494400000000000000000000000000000000000000000060648201526084016108c7565b600085815260ca60205260409020600701546001600160a01b031615806119215750600085815260ca60205260409020600701546001600160a01b031633145b6119935760405162461bcd60e51b815260206004820152602a60248201527f4d61726b6574706c6163652e6d616b6542696423204e4f545f57484954454c4960448201527f535445445f42555945520000000000000000000000000000000000000000000060648201526084016108c7565b600085815260ca60208181526040808420600901805460cb8452828620818752845291852080546001600160a01b031916331781556002018054881515600160a01b026001600160a81b03199091166001600160a01b038c16171790558985529290915281549092909190611a078361504b565b9091555050600086815260ca602052604090206008810154905460ff1615611b6b5760d1546040517f23b872dd0000000000000000000000000000000000000000000000000000000081523360048201523060248201526001600160801b03871660448201526001600160a01b03909116906323b872dd906064016020604051808303816000875af1158015611aa1573d6000803e3d6000fd5b505050506040513d601f19601f82011682018060405250810190611ac59190615066565b50600087815260cb602090815260408083208584528083528184206001600160801b038a16600191820181905586865291909352922001541015611b1857600087815260ca602052604090206008018290555b604080518881526020810184905233818301526001600160801b038716606082015290517fcbffcc43c67649135d337cb60637e46d080db8d71269ce6a001233a99e41a3379181900360800190a1611bfa565b600087815260cb6020908152604080832085845280835281842034600191820181905586865291909352922001541015611bb457600087815260ca602052604090206008018290555b6040805188815260208101849052338183015234606082015290517fcbffcc43c67649135d337cb60637e46d080db8d71269ce6a001233a99e41a3379181900360800190a15b611c048783613981565b15611c1a57611c1387836136e5565b5050611c3e565b600087815260ca602052604090205460ff166002141561103b57611c1387836136e5565b5050505050565b600082815260ca60205260409020600a0154829060ff16611cba5760405162461bcd60e51b815260206004820152602960248201527f4d61726b6574706c6163652e61756374696f6e4f6e676f696e672320454e4445604482015268222fa0aaa1aa24a7a760b91b60648201526084016108c7565b600083815260ca602052604090206006015483906001600160a01b03163314611d385760405162461bcd60e51b815260206004820152602a60248201527f4d61726b6574706c6163652e6f6e6c794e667453656c6c657223204f4e4c595f60448201526927232a2fa9a2a62622a960b11b60648201526084016108c7565b600084815260ca60205260409020600501546001600160801b03908116908416811580611d655750808210155b611dea5760405162461bcd60e51b815260206004820152604a60248201527f4d61726b6574706c6163652e6d696e5072696365446f65734e6f74457863656560448201527f644c696d697423204d494e5f50524943455f4849474845525f5448414e5f4255606482015269594e4f575f505249434560b01b608482015260a4016108c7565b600086815260ca602052604090205460ff16600114611e715760405162461bcd60e51b815260206004820152602e60248201527f4d61726b6574706c6163652e7570646174654d696e696d756d5072696365232060448201527f4e4f545f414e5f41554354494f4e00000000000000000000000000000000000060648201526084016108c7565b600086815260ca6020908152604091829020600401805473ffffffffffffffffffffffffffffffff0000000019166401000000006001600160801b038a16908102919091179091558251898152918201527f826ea6ea0ad7454ad226458d3ee4136a09fb14d0a7bda87281bb576c5cd9d16791015b60405180910390a1505050505050565b6001600160a01b038616600090815260cc6020526040902054869060ff16611f865760405162461bcd60e51b815260206004820152603b60248201527f4d61726b6574706c6163652e69734e6674436f6e74726163745472757374656460448201527f2320554e415554484f52495a45445f4e46545f434f4e5452414354000000000060648201526084016108c7565b8686868260005b8351811015612181576000826001600160a01b031663cd53d08e868481518110611fb957611fb9614fe9565b60200260200101516040518263ffffffff1660e01b8152600401611fdf91815260200190565b602060405180830381865afa158015611ffc573d6000803e3d6000fd5b505050506040513d601f19601f820116820180604052508101906120209190614fff565b6001600160a01b0316336001600160a01b0316149050600084838151811061204a5761204a614fe9565b6020026020010151846001600160a01b031662fdd58e3389878151811061207357612073614fe9565b60200260200101516040518363ffffffff1660e01b81526004016120ac9291906001600160a01b03929092168252602082015260400190565b602060405180830381865afa1580156120c9573d6000803e3d6000fd5b505050506040513d601f19601f820116820180604052508101906120ed919061501c565b1015905081806120fa5750805b61216c5760405162461bcd60e51b815260206004820152603b60248201527f4d61726b6574706c6163652e656e6f756768546f6b656e73466f7253616c652360448201527f204e4f545f454e4f5547485f544f4b454e535f464f525f53414c45000000000060648201526084016108c7565b505080806121799061504b565b915050611f8d565b506001600160a01b038b166121f35760405162461bcd60e51b815260206004820152603260248201527f4d61726b6574706c6163652e63726561746553616c652320494e56414c49445f60448201527113919517d513d2d15397d0d3d395149050d560721b60648201526084016108c7565b866001600160801b0316886001600160801b031610156122a15760405162461bcd60e51b815260206004820152604660248201527f4d61726b6574706c6163652e6372656174654465636c696e696e67507269636560448201527f53616c65232053544152545f50524943455f4c4f5745525f5448414e5f454e4460648201527f5f50524943450000000000000000000000000000000000000000000000000000608482015260a4016108c7565b6000866001600160801b031611612322576040805162461bcd60e51b81526020600482015260248101919091527f4d61726b6574706c6163652e6372656174654465636c696e696e67507269636560448201527f53616c652320494e56414c49445f44454352454d454e545f4455524154494f4e60648201526084016108c7565b600061232d60c95490565b9050600260ca600083815260200190815260200160002060000160006101000a81548160ff021916908360ff1602179055508b60ca600083815260200190815260200160002060000160016101000a8154816001600160a01b0302191690836001600160a01b031602179055508a60ca600083815260200190815260200160002060010190805190602001906123c492919061486d565b50600081815260ca602090815260409091208b516123ea926002909201918d019061486d565b50600081815260ca602052604090206004810180546001600160801b03808c166401000000000273ffffffffffffffffffffffffffffffff0000000019909216919091179091556005820180548c83166fffffffffffffffffffffffffffffffff1990911617905542600b8301558816600c8201556006810180546001600160a01b03191633179055600a01805460ff1916600117905561248f60c980546001019055565b612498816139d8565b6040518181527f0b9b8c4e28ff3dc547c2217d1216c20ade00445e385487e9575a83932e7811a79060200160405180910390a1505050505050505050505050565b6033546001600160a01b031633146125335760405162461bcd60e51b815260206004820181905260248201527f4f776e61626c653a2063616c6c6572206973206e6f7420746865206f776e657260448201526064016108c7565b61253d6000613f37565b565b6033546001600160a01b031633146125995760405162461bcd60e51b815260206004820181905260248201527f4f776e61626c653a2063616c6c6572206973206e6f7420746865206f776e657260448201526064016108c7565b60d08190556040518181527f467b9dcd7cfe8d0eecba28a05c79dc108d0bdaf6f142d99e66450964d78c6b68906020015b60405180910390a150565b6033546001600160a01b0316331461262f5760405162461bcd60e51b815260206004820181905260248201527f4f776e61626c653a2063616c6c6572206973206e6f7420746865206f776e657260448201526064016108c7565b6001600160a01b0381166126ab5760405162461bcd60e51b815260206004820152603a60248201527f4d61726b6574706c6163652e7365744552433230546f6b656e466f724175637460448201527f696f6e2320494e56414c49445f45524332305f4144445245535300000000000060648201526084016108c7565b60d180546001600160a01b0319166001600160a01b0383169081179091556040519081527f7df8810e3d112d9833fe897b614702ff4677b63741316980cae4869981168200906020016125ca565b600082815260ca60205260409020600a0154829060ff1661276e5760405162461bcd60e51b815260206004820152602960248201527f4d61726b6574706c6163652e61756374696f6e4f6e676f696e672320454e4445604482015268222fa0aaa1aa24a7a760b91b60648201526084016108c7565b600083815260cb60209081526040808320858452825291829020825160808101845281546001600160a01b0390811680835260018401549483019490945260029092015491821693810193909352600160a01b900460ff161515606083015233146128415760405162461bcd60e51b815260206004820152603560248201527f4d61726b6574706c6163652e776974686472617742696423204f4e4c595f424960448201527f444445525f43414e5f57495448445241575f424944000000000000000000000060648201526084016108c7565b600084815260ca60205260408120600901548190815b818110156128c557600088815260cb602090815260408083208484529091529020600101548310801561288a5750868114155b156128b357600088815260cb602090815260408083208484529091529020600101549093509150825b806128bd8161504b565b915050612857565b5081156128e557600087815260ca602052604090206008018390556128ff565b600087815260ca6020526040812060088101829055600901555b600087815260ca602052604090205460ff16156129515760208085015185516001600160a01b0316600090815260ce90925260408220805491929091612946908490615083565b909155506129879050565b60208085015185516001600160a01b0316600090815260cd90925260408220805491929091612981908490615083565b90915550505b600087815260cb60209081526040808320898452825280832080546001600160a01b03191681556001810193909355600290920180546001600160a81b031916905581518981529081018890527f6415d97b7a9df23899954c482911f3fc2cb8afff4b6b15e788859e1307de227a910160405180910390a150505050505050565b600081815260ca60205260409020600601546001600160a01b0316331480612a3a57506033546001600160a01b031633145b612a995760405162461bcd60e51b815260206004820152602a60248201527f4d61726b6574706c6163652e6f6e6c794e667453656c6c657223204f4e4c595f60448201526927232a2fa9a2a62622a960b11b60648201526084016108c7565b612aa281613f89565b612aab81614075565b6040518181527f4409ad24c3635ef8e826ac816d4bf7a4f6a9362119a2e37eb652ebaca1af3b37906020016125ca565b600054610100900460ff16612af65760005460ff1615612afa565b303b155b612b6c5760405162461bcd60e51b815260206004820152602e60248201527f496e697469616c697a61626c653a20636f6e747261637420697320616c72656160448201527f647920696e697469616c697a656400000000000000000000000000000000000060648201526084016108c7565b600054610100900460ff16158015612b8e576000805461ffff19166101011790555b612b96614136565b60cf80546001600160a01b0380871668010000000000000000026001600160e01b0319909216919091176464000000641790915560d084905560d180549184166001600160a01b03199092169190911790558015612bfa576000805461ff00191690555b50505050565b6033546001600160a01b03163314612c5a5760405162461bcd60e51b815260206004820181905260248201527f4f776e61626c653a2063616c6c6572206973206e6f7420746865206f776e657260448201526064016108c7565b6001600160a01b038116612cd65760405162461bcd60e51b815260206004820152603260248201527f4d61726b6574706c6163652e7365744d61726b6574706c6163652320494e564160448201527f4c49445f57414c4c45545f41444452455353000000000000000000000000000060648201526084016108c7565b60cf80547fffffffff0000000000000000000000000000000000000000ffffffffffffffff16680100000000000000006001600160a01b038481168202929092179283905560405192041681527f2f129f42e8d7346a011db1718b2797520bb389d0a82bedf0a42a6944e3db4162906020016125ca565b60026065541415612da05760405162461bcd60e51b815260206004820152601f60248201527f5265656e7472616e637947756172643a207265656e7472616e742063616c6c0060448201526064016108c7565b600260655533600090815260cd60205260409020548015612df85733600081815260cd60205260408082208290555183156108fc0291849190818181858888f19350505050158015612df6573d6000803e3d6000fd5b505b33600090815260ce60205260409020548015612e985733600081815260ce60205260408082209190915560d154905163a9059cbb60e01b81526004810192909252602482018390526001600160a01b03169063a9059cbb906044016020604051808303816000875af1158015612e72573d6000803e3d6000fd5b505050506040513d601f19601f82011682018060405250810190612e969190615066565b505b60408051838152602081018390527f91950abad290204bb7294ab666411d979ea8f92a3fada9cde6174711d8adfd62910160405180910390a150506001606555565b6033546001600160a01b03163314612f345760405162461bcd60e51b815260206004820181905260248201527f4f776e61626c653a2063616c6c6572206973206e6f7420746865206f776e657260448201526064016108c7565b6001600160a01b038116612fb05760405162461bcd60e51b815260206004820152602660248201527f4f776e61626c653a206e6577206f776e657220697320746865207a65726f206160448201527f646472657373000000000000000000000000000000000000000000000000000060648201526084016108c7565b612fb981613f37565b50565b6033546001600160a01b031633146130165760405162461bcd60e51b815260206004820181905260248201527f4f776e61626c653a2063616c6c6572206973206e6f7420746865206f776e657260448201526064016108c7565b600081815260ca60205260409020600a0154819060ff1661308b5760405162461bcd60e51b815260206004820152602960248201527f4d61726b6574706c6163652e61756374696f6e4f6e676f696e672320454e4445604482015268222fa0aaa1aa24a7a760b91b60648201526084016108c7565b600082815260ca60205260409020600a8101805460ff19169055600901546130bf576130b682613f89565b6130bf82614075565b6040518281527ff0968c9745ca5ed62dfb850fef20f125b146d3460dbbfeaab73e47be81ea5b6190602001610d62565b6001600160a01b038616600090815260cc6020526040902054869060ff1661317f5760405162461bcd60e51b815260206004820152603b60248201527f4d61726b6574706c6163652e69734e6674436f6e74726163745472757374656460448201527f2320554e415554484f52495a45445f4e46545f434f4e5452414354000000000060648201526084016108c7565b8686868260005b835181101561337a576000826001600160a01b031663cd53d08e8684815181106131b2576131b2614fe9565b60200260200101516040518263ffffffff1660e01b81526004016131d891815260200190565b602060405180830381865afa1580156131f5573d6000803e3d6000fd5b505050506040513d601f19601f820116820180604052508101906132199190614fff565b6001600160a01b0316336001600160a01b0316149050600084838151811061324357613243614fe9565b6020026020010151846001600160a01b031662fdd58e3389878151811061326c5761326c614fe9565b60200260200101516040518363ffffffff1660e01b81526004016132a59291906001600160a01b03929092168252602082015260400190565b602060405180830381865afa1580156132c2573d6000803e3d6000fd5b505050506040513d601f19601f820116820180604052508101906132e6919061501c565b1015905081806132f35750805b6133655760405162461bcd60e51b815260206004820152603b60248201527f4d61726b6574706c6163652e656e6f756768546f6b656e73466f7253616c652360448201527f204e4f545f454e4f5547485f544f4b454e535f464f525f53414c45000000000060648201526084016108c7565b505080806133729061504b565b915050613186565b50866001600160801b0316886001600160801b0316816000148061339e5750808210155b6134235760405162461bcd60e51b815260206004820152604a60248201527f4d61726b6574706c6163652e6d696e5072696365446f65734e6f74457863656560448201527f644c696d697423204d494e5f50524943455f4849474845525f5448414e5f4255606482015269594e4f575f505249434560b01b608482015260a4016108c7565b6001600160a01b038d166134945760405162461bcd60e51b815260206004820152603260248201527f4d61726b6574706c6163652e63726561746553616c652320494e56414c49445f60448201527113919517d513d2d15397d0d3d395149050d560721b60648201526084016108c7565b60cf5463ffffffff6401000000009091048116908916101561351e5760405162461bcd60e51b815260206004820152603d60248201527f4d61726b6574706c6163652e6372656174654e667441756374696f6e2320544f60448201527f4f5f4c4f575f4249445f494e4352454153455f50455243454e5441474500000060648201526084016108c7565b600061352960c95490565b9050600160ca600083815260200190815260200160002060000160006101000a81548160ff021916908360ff1602179055508d60ca600083815260200190815260200160002060000160016101000a8154816001600160a01b0302191690836001600160a01b031602179055508c60ca600083815260200190815260200160002060010190805190602001906135c092919061486d565b50600081815260ca602090815260409091208d516135e6926002909201918f019061486d565b50600081815260ca602052604090206004810180546001600160801b03808f16640100000000026001600160a01b031992831663ffffffff8f161717909255600583018054928e166fffffffffffffffffffffffffffffffff199093169290921790915560068201805490911633179055600a01805460ff1916600117905561367360c980546001019055565b61367c816139d8565b6040518181527f50001d53a59560c856a75f7bfa4eedd293d1be8b96d6df75b6d713fc71a12eb69060200160405180910390a15050505050505050505050505050565b600082815260cb6020908152604080832084845290915290206001015415155b92915050565b600082815260ca602090815260408083206006015460cb835281842085855290925282206001015460d0546001600160a01b039092169290916137299083906141a9565b90506000613737828461509b565b600087815260ca602052604090205490915060ff16156138535760d15460cf5460405163a9059cbb60e01b81526001600160a01b03680100000000000000009092048216600482015260248101859052911690819063a9059cbb906044016020604051808303816000875af11580156137b4573d6000803e3d6000fd5b505050506040513d601f19601f820116820180604052508101906137d89190615066565b5060405163a9059cbb60e01b81526001600160a01b0386811660048301526024820184905282169063a9059cbb906044016020604051808303816000875af1158015613828573d6000803e3d6000fd5b505050506040513d601f19601f8201168201806040525081019061384c9190615066565b50506138d1565b60cf54604051680100000000000000009091046001600160a01b0316906108fc8415029084906000818181858888f19350505050158015613898573d6000803e3d6000fd5b506040516001600160a01b0385169082156108fc029083906000818181858888f193505050501580156138cf573d6000803e3d6000fd5b505b6138db86866141c1565b600086815260cb60209081526040808320888452909152812080546001600160a01b0319168155600181019190915560020180546001600160a81b031916905561392486614075565b600086815260ca602052604090207f20877c4117beb2690e97feafba3d4ee4c9d8e9e4b9005c6868d4541995946a0b90879087906001810190600201873361396c8686614499565b42604051611ee69897969594939291906150f2565b600082815260ca60205260408120600501546001600160801b031680158015906139d05750600084815260cb602090815260408083208684529091529020600101546001600160801b03821611155b949350505050565b60026065541415613a2b5760405162461bcd60e51b815260206004820152601f60248201527f5265656e7472616e637947756172643a207265656e7472616e742063616c6c0060448201526064016108c7565b6002606555600081815260ca602090815260408083206006810154600190910180548351818602810186019094528084526001600160a01b039092169493909190830182828015613a9b57602002820191906000526020600020905b815481526020019060010190808311613a87575b50505050509050600060ca6000858152602001908152602001600020600201805480602002602001604051908101604052809291908181526020018280548015613b0457602002820191906000526020600020905b815481526020019060010190808311613af0575b505050600087815260ca60205260408120549394506101009093046001600160a01b0316929150505b8351811015613c7a576000826001600160a01b031662fdd58e87878581518110613b5957613b59614fe9565b60200260200101516040518363ffffffff1660e01b8152600401613b929291906001600160a01b03929092168252602082015260400190565b602060405180830381865afa158015613baf573d6000803e3d6000fd5b505050506040513d601f19601f82011682018060405250810190613bd3919061501c565b9050838281518110613be757613be7614fe9565b6020026020010151811015613c1f57600087815260ca6020908152604082206003018054600181018255908352912001819055613c67565b60ca6000888152602001908152602001600020600301848381518110613c4757613c47614fe9565b602090810291909101810151825460018101845560009384529190922001555b5080613c728161504b565b915050613b2d565b50600085815260ca6020526040908190209051631759616b60e11b81526001600160a01b03831691632eb2c2d691613cc091889130918991600390910190600401615185565b600060405180830381600087803b158015613cda57600080fd5b505af1158015613cee573d6000803e3d6000fd5b5050600160655550505050505050565b600082815260ca602052604081205460ff1615613d335734158015613d2c57506000826001600160801b0316115b90506136df565b3415801590613d2c5750506001600160801b038116156136df565b600083815260ca60205260408120600501546001600160801b03168015801590613d9d5750806001600160801b031634101580613d9d5750806001600160801b0316846001600160801b031610155b15613dac576001915050613f30565b600085815260ca602052604090205460ff1660011415613ee557600085815260ca602052604090206009015415613ea157600085815260cb6020908152604080832060ca83528184206008015484528252808320815160808101835281546001600160a01b03908116825260018301549482019490945260029091015492831691810191909152600160a01b90910460ff161515606082015290612710613e52886144ee565b613e5e906127106151e0565b63ffffffff168360200151613e739190615208565b613e7d9190615227565b90508034101580613e97575080866001600160801b031610155b9350505050613f30565b600085815260ca602052604090206004015464010000000090046001600160801b03163481111580613edc575080856001600160801b031610155b92505050613f30565b600085815260ca602052604090205460ff1660021415613f2b576000613f0a8661451b565b90508034101580613edc57506001600160801b03851610159150613f309050565b829150505b9392505050565b603380546001600160a01b038381166001600160a01b0319831681179093556040519116919082907f8be0079c531659141344cd1fd0a4f28419497f9722a3daafe3b4186f6b6457e090600090a35050565b60026065541415613fdc5760405162461bcd60e51b815260206004820152601f60248201527f5265656e7472616e637947756172643a207265656e7472616e742063616c6c0060448201526064016108c7565b6002606555600081815260ca602052604090819020805460068201549251631759616b60e11b81526101009091046001600160a01b039081169316918391632eb2c2d6916140399130918691600182019160030190600401615249565b600060405180830381600087803b15801561405357600080fd5b505af1158015614067573d6000803e3d6000fd5b505060016065555050505050565b61407e816145f3565b600081815260ca6020526040812080546001600160a81b0319168155906140a860018301826148b8565b6140b66002830160006148b8565b6140c46003830160006148b8565b506004810180546001600160a01b03199081169091556005820180546fffffffffffffffffffffffffffffffff1916905560068201805482169055600782018054909116905560006008820181905560098201819055600a8201805460ff19169055600b8201819055600c9091015550565b600054610100900460ff166141a15760405162461bcd60e51b815260206004820152602b60248201527f496e697469616c697a61626c653a20636f6e7472616374206973206e6f74206960448201526a6e697469616c697a696e6760a81b60648201526084016108c7565b61253d6147ed565b6000613f306127106141bb8486615208565b90614861565b600260655414156142145760405162461bcd60e51b815260206004820152601f60248201527f5265656e7472616e637947756172643a207265656e7472616e742063616c6c0060448201526064016108c7565b6002606555600082815260ca602052604081205461010090046001600160a01b0316906142418484614499565b600085815260ca602090815260408083206001018054825181850281018501909352808352949550929390929183018282801561429d57602002820191906000526020600020905b815481526020019060010190808311614289575b50505050509050600060ca600087815260200190815260200160002060020180548060200260200160405190810160405280929190818152602001828054801561430657602002820191906000526020600020905b8154815260200190600101908083116142f2575b5050505050905060005b825181101561442757600087815260ca6020526040812060030180548390811061433c5761433c614fe9565b906000526020600020015483838151811061435957614359614fe9565b602002602001015161436b919061509b565b9050801561441457856001600160a01b031663731133e93086858151811061439557614395614fe9565b60209081029190910101516040516001600160e01b031960e085901b1681526001600160a01b039092166004830152602482015260448101849052608060648201526000608482015260a401600060405180830381600087803b1580156143fb57600080fd5b505af115801561440f573d6000803e3d6000fd5b505050505b508061441f8161504b565b915050614310565b50604051631759616b60e11b81526001600160a01b03851690632eb2c2d69061445a903090879087908790600401615275565b600060405180830381600087803b15801561447457600080fd5b505af1158015614488573d6000803e3d6000fd5b505060016065555050505050505050565b600082815260cb602090815260408083208484529091528120600201546001600160a01b031680613d2c575050600082815260cb602090815260408083208484529091529020546001600160a01b03166136df565b600081815260ca602052604081206004015463ffffffff16806136df57505060cf5463ffffffff16919050565b600081815260ca60205260408120600c810154600b90910154829190614541904261509b565b61454d90612710615208565b6145579190615227565b90506127108111614568578061456c565b6127105b9050600061457c8261271061509b565b600085815260ca602052604081206004015491925090612710906145b19064010000000090046001600160801b031685615208565b600087815260ca60205260409020600501546145d6906001600160801b031685615208565b6145e09190615083565b6145ea9190615227565b95945050505050565b600081815260ca602052604090206009810154905460ff16156147015760005b818110156146fc5761462583826136bf565b156146ea57600083815260cb602090815260408083208484528252808320815160808101835281546001600160a01b03908116808352600184015483870181905260029094015491821683860152600160a01b90910460ff1615156060830152855260ce9093529083208054929391929091906146a3908490615083565b909155505050600083815260cb60209081526040808320848452909152812080546001600160a01b0319168155600181019190915560020180546001600160a81b03191690555b806146f48161504b565b915050614613565b505050565b60005b818110156146fc5761471683826136bf565b156147db57600083815260cb602090815260408083208484528252808320815160808101835281546001600160a01b03908116808352600184015483870181905260029094015491821683860152600160a01b90910460ff1615156060830152855260cd909352908320805492939192909190614794908490615083565b909155505050600083815260cb60209081526040808320848452909152812080546001600160a01b0319168155600181019190915560020180546001600160a81b03191690555b806147e58161504b565b915050614704565b600054610100900460ff166148585760405162461bcd60e51b815260206004820152602b60248201527f496e697469616c697a61626c653a20636f6e7472616374206973206e6f74206960448201526a6e697469616c697a696e6760a81b60648201526084016108c7565b61253d33613f37565b6000613f308284615227565b8280548282559060005260206000209081019282156148a8579160200282015b828111156148a857825182559160200191906001019061488d565b506148b49291506148d2565b5090565b5080546000825590600052602060002090810190612fb991905b5b808211156148b457600081556001016148d3565b6000602082840312156148f957600080fd5b81356001600160e01b031981168114613f3057600080fd5b60006020828403121561492357600080fd5b5035919050565b60ff8d1681526001600160a01b038c8116602083015263ffffffff8c1660408301526001600160801b038b811660608401528a16608083015288811660a0830152871660c082015261018081018660e08301528561010083015261499361012083018615159052565b61014082019390935261016001529a9950505050505050505050565b8015158114612fb957600080fd5b6000806000606084860312156149d257600080fd5b833592506020840135915060408401356149eb816149af565b809150509250925092565b60008060408385031215614a0957600080fd5b50508035926020909101359150565b6001600160a01b0381168114612fb957600080fd5b60008060408385031215614a4057600080fd5b8235614a4b81614a18565b91506020830135614a5b816149af565b809150509250929050565b600060208284031215614a7857600080fd5b8135613f3081614a18565b80356001600160801b0381168114614a9a57600080fd5b919050565b60008060408385031215614ab257600080fd5b82359150614ac260208401614a83565b90509250929050565b634e487b7160e01b600052604160045260246000fd5b600082601f830112614af257600080fd5b8135602067ffffffffffffffff80831115614b0f57614b0f614acb565b8260051b604051601f19603f83011681018181108482111715614b3457614b34614acb565b604052938452858101830193838101925087851115614b5257600080fd5b83870191505b84821015614b7157813583529183019190830190614b58565b979650505050505050565b600080600080600060a08688031215614b9457600080fd5b8535614b9f81614a18565b9450602086013567ffffffffffffffff80821115614bbc57600080fd5b614bc889838a01614ae1565b95506040880135915080821115614bde57600080fd5b50614beb88828901614ae1565b935050614bfa60608701614a83565b91506080860135614c0a81614a18565b809150509295509295909350565b60008060408385031215614c2b57600080fd5b823591506020830135614a5b81614a18565b60008060008060808587031215614c5357600080fd5b843593506020850135614c6581614a18565b9250614c7360408601614a83565b91506060850135614c83816149af565b939692955090935050565b60008060008060008060c08789031215614ca757600080fd5b8635614cb281614a18565b9550602087013567ffffffffffffffff80821115614ccf57600080fd5b614cdb8a838b01614ae1565b96506040890135915080821115614cf157600080fd5b50614cfe89828a01614ae1565b945050614d0d60608801614a83565b9250614d1b60808801614a83565b9150614d2960a08801614a83565b90509295509295509295565b60008083601f840112614d4757600080fd5b50813567ffffffffffffffff811115614d5f57600080fd5b6020830191508360208260051b8501011115614d7a57600080fd5b9250929050565b60008083601f840112614d9357600080fd5b50813567ffffffffffffffff811115614dab57600080fd5b602083019150836020828501011115614d7a57600080fd5b60008060008060008060008060a0898b031215614ddf57600080fd5b8835614dea81614a18565b97506020890135614dfa81614a18565b9650604089013567ffffffffffffffff80821115614e1757600080fd5b614e238c838d01614d35565b909850965060608b0135915080821115614e3c57600080fd5b614e488c838d01614d35565b909650945060808b0135915080821115614e6157600080fd5b50614e6e8b828c01614d81565b999c989b5096995094979396929594505050565b600080600060608486031215614e9757600080fd5b8335614ea281614a18565b92506020840135915060408401356149eb81614a18565b60008060008060008060a08789031215614ed257600080fd5b8635614edd81614a18565b95506020870135614eed81614a18565b94506040870135935060608701359250608087013567ffffffffffffffff811115614f1757600080fd5b614f2389828a01614d81565b979a9699509497509295939492505050565b60008060008060008060c08789031215614f4e57600080fd5b8635614f5981614a18565b9550602087013567ffffffffffffffff80821115614f7657600080fd5b614f828a838b01614ae1565b96506040890135915080821115614f9857600080fd5b50614fa589828a01614ae1565b945050614fb460608801614a83565b9250614fc260808801614a83565b915060a087013563ffffffff81168114614fdb57600080fd5b809150509295509295509295565b634e487b7160e01b600052603260045260246000fd5b60006020828403121561501157600080fd5b8151613f3081614a18565b60006020828403121561502e57600080fd5b5051919050565b634e487b7160e01b600052601160045260246000fd5b600060001982141561505f5761505f615035565b5060010190565b60006020828403121561507857600080fd5b8151613f30816149af565b6000821982111561509657615096615035565b500190565b6000828210156150ad576150ad615035565b500390565b6000815480845260208085019450836000528060002060005b838110156150e7578154875295820195600191820191016150cb565b509495945050505050565b60006101008a83528960208401528060408401526151128184018a6150b2565b9050828103606084015261512681896150b2565b608084019790975250506001600160a01b0393841660a08201529190921660c082015260e00152949350505050565b600081518084526020808501945080840160005b838110156150e757815187529582019590820190600101615169565b60006001600160a01b03808716835280861660208401525060a060408301526151b160a0830185615155565b82810360608401526151c381856150b2565b838103608090940193909352505060008152602001949350505050565b600063ffffffff8083168185168083038211156151ff576151ff615035565b01949350505050565b600081600019048311821515161561522257615222615035565b500290565b60008261524457634e487b7160e01b600052601260045260246000fd5b500490565b60006001600160a01b03808716835280861660208401525060a060408301526151b160a08301856150b2565b60006001600160a01b03808716835280861660208401525060a060408301526152a160a0830185615155565b82810360608401526151c3818561515556fea26469706673582212202e6b9ef42d60a85a52ff556e95649b10fffdee2496f2ff83bfe9b345c3334cbe64736f6c634300080b0033",
  "immutableReferences": {},
  "source": "\n//SPDX-License-Identifier: Unlicense\npragma solidity ^0.8.11;\n\nimport \"@openzeppelin/contracts-upgradeable/utils/math/SafeMathUpgradeable.sol\";\nimport \"@openzeppelin/contracts-upgradeable/utils/CountersUpgradeable.sol\";\nimport \"@openzeppelin/contracts-upgradeable/access/OwnableUpgradeable.sol\";\nimport \"@openzeppelin/contracts-upgradeable/security/ReentrancyGuardUpgradeable.sol\";\n\nimport \"@openzeppelin/contracts-upgradeable/token/ERC20/IERC20Upgradeable.sol\";\nimport \"@openzeppelin/contracts-upgradeable/token/ERC1155/IERC1155ReceiverUpgradeable.sol\";\nimport \"@openzeppelin/contracts-upgradeable/utils/introspection/ERC165Upgradeable.sol\";\n\n\nimport \"./ArtToken.sol\";\n\n\n/// @title An Auction Contract for bidding and selling single and batched NFTs\n/// @notice This contract can be used for auctioning any NFTs, and accepts any ERC20 token as payment\ncontract Marketplace is \n    OwnableUpgradeable, \n    ReentrancyGuardUpgradeable, \n    ERC165Upgradeable, \n    IERC1155ReceiverUpgradeable \n{\n    using SafeMathUpgradeable for uint256;\n    using CountersUpgradeable for CountersUpgradeable.Counter;\n\n    CountersUpgradeable.Counter internal _auctionIdCounter;\n\n    /// @notice auctionId --> Auction\n    mapping(uint256 => Auction) public idToAuction;\n    /// @notice autionId --> bidId --> Bid\n    mapping(uint256 => mapping(uint256 => Bid)) public auctionToBid;\n    /// @notice nftContractAddress --> isApproved\n    mapping(address => bool) public isTrustedNftContract;\n    /// @notice Failed transfer ETHs\n    mapping(address => uint256) public ethCredits;\n    /// @notice Failed transfer tokens\n    mapping(address => uint256) public tokenCredits;\n    \n    struct Auction {\n        /// @notice 0 = fixed-price sale, 1 = timed-auction, 2 = declining sale\n        uint8 auctionType;\n        /// @notice NFT contract holding NFTs for sale\n        address nftContractAddress;\n        uint256[] tokenIds;\n        uint256[] quantities;\n        /// @notice Amounts of NFTs transferred to marketplace at the last transfer\n        uint256[] transferredQuantities;\n        uint32 bidIncreasePercentage;\n        /// @notice Reserve price for auction, or minimum price in declining sale\n        uint128 minPrice;\n        /// @notice This is used in fixed-price sale as well\n        uint128 buyNowPrice;\n        address nftSeller;\n        /// @notice The seller can specify a whitelisted address for a sale (this is effectively a direct sale)\n        address whitelistedBuyer;\n        /// @notice This bid ID must be always valid\n        uint256 highestBidId;\n        uint256 numBids;\n        /// @notice Whether auction is on-going\n        bool isOnGoing;\n        /// @notice Auction start time (used in declining-price sale)\n        uint256 startTime;\n        /// @notice The time, for which NFT price decreases from buyNowPrice to minPrice (used in declining-price sale)\n        uint256 decrementDuration;\n    }\n\n    struct Bid {\n        address bidder;\n        uint256 bid;\n        /// @notice The bidder can specify a recipient for the NFT if their bid is successful\n        address nftRecipient;\n        bool isOffer;\n    }\n\n    /// @notice Default values that are used if not specified by the NFT seller\n    uint32 public defaultBidIncreasePercentage;\n    uint32 public minimumSettableIncreasePercentage;\n\n    /// @notice Fees need to be paid for successful purchase\n    address public marketplaceWallet;\n    uint256 public marketplaceFeePortion;\n\n    /// @notice ERC20 token used for timed-auction payment\n    address public erc20TokenForAuction;\n\n    /*\n                 EVENTS            \n      */\n    event MarketplaceWalletChanged(address marketplaceWallet);\n\n    event MarketplaceFeePortionChanged(uint256 marketplaceFeePortion);\n\n    event ERC20TokenForAuctionChanged(address erc20TokenForAuction);\n\n    event NftTokenContractTrusted(address nftContractAddress, bool isTrusted);\n\n    event NftAuctionCreated(uint256 auctionId);\n\n    event SaleCreated(uint256 auctionId);\n\n    event DecliningPriceSaleCreated(uint256 auctionId);\n\n    event BidMade(uint256 auctionId, uint256 bidId, address bidder, uint256 ethAmount);\n\n    event NFTTransferredAndSellerPaid(\n        uint256 auctionId, \n        uint256 bidId,\n        uint256[] tokenIds,\n        uint256[] quantities,\n        uint256 price,\n        address to,\n        address from,\n        uint256 blockTimestamp\n    );\n\n    event AuctionStopped(uint256 auctionId);\n\n    event AuctionSettled(uint256 auctionId, uint256 _bidId);\n\n    event AuctionWithdrawn(uint256 auctionId);\n\n    event BidWithdrawn(uint256 auctionId, uint256 bidId);\n\n    event WhitelistedBuyerUpdated(uint256 auctionId, address newWhitelistedBuyer);\n\n    event MinimumPriceUpdated(uint256 auctionId, uint256 newMinPrice);\n\n    event BuyNowPriceUpdated(uint256 auctionId, uint128 newBuyNowPrice);\n\n    event OfferTaken(uint256 auctionId, uint256 bidId);\n\n    event CreditWithdrawn(uint256 ethAmount, uint256 tokenAmount);\n\n    /**********************************/\n    /*\n                   END             \n                  EVENTS           \n      */\n    /**********************************/\n    /*\n                MODIFIERS          \n      */\n    /// @notice Check if nftContractAddress is trusted or not\n    modifier isNftContractTrusted(address _nftContractAddress) {\n        require(\n            isTrustedNftContract[_nftContractAddress],\n            \"Marketplace.isNftContractTrusted# UNAUTHORIZED_NFT_CONTRACT\"\n        );\n        _;\n    }\n\n    /// @notice Check if msg.sender has enough NFTs for sale\n    modifier enoughTokensForSale(\n        address _nftContractAddress,\n        uint256[] memory _tokenIds,\n        uint256[] memory _quantities\n    ) {\n        ArtToken arttoken = ArtToken(_nftContractAddress);\n        for (uint256 i = 0; i < _tokenIds.length; i++) {\n            bool isCreator = msg.sender == arttoken.creators(_tokenIds[i]);\n            bool isOwner = arttoken.balanceOf(msg.sender, _tokenIds[i]) >= _quantities[i];\n            require(\n                isCreator || isOwner, \n                \"Marketplace.enoughTokensForSale# NOT_ENOUGH_TOKENS_FOR_SALE\"\n            );\n        }\n        _;\n    }\n\n    modifier auctionOngoing(uint256 _auctionId) {\n        require(\n            idToAuction[_auctionId].isOnGoing,\n            \"Marketplace.auctionOngoing# ENDED_AUCTION\"\n        );\n        _;\n    }\n\n    /// @notice The minimum price must be less than the buyNowPrice (if set)\n    modifier minPriceDoesNotExceedLimit(uint256 _buyNowPrice, uint256 _minPrice) {\n        require(\n            (_buyNowPrice == 0) || (_buyNowPrice >= _minPrice),\n            \"Marketplace.minPriceDoesNotExceedLimit# MIN_PRICE_HIGHER_THAN_BUYNOW_PRICE\"\n        );\n        _;\n    }\n\n    modifier onlyNftSeller(uint256 _auctionId) {\n        require(\n            msg.sender == idToAuction[_auctionId].nftSeller,\n            \"Marketplace.onlyNftSeller# ONLY_NFT_SELLER\"\n        );\n        _;\n    }\n\n    // /**********************************/\n    // /*\n    //                END             \n    //             MODIFIERS          \n    //   */\n    // /**********************************/\n    function initialize(\n        address _marketplaceWallet, \n        uint256 _marketplaceFeePortion,\n        address _erc20TokenForAuction\n    ) public initializer {\n        __Ownable_init();\n\n        defaultBidIncreasePercentage = 100;\n        minimumSettableIncreasePercentage = 100;\n\n        marketplaceWallet = _marketplaceWallet;\n        marketplaceFeePortion = _marketplaceFeePortion;\n        erc20TokenForAuction = _erc20TokenForAuction;\n    }\n\n    function onERC1155Received(\n        address operator,\n        address from,\n        uint256 id,\n        uint256 value,\n        bytes calldata data\n    ) external override returns(bytes4) {\n        return bytes4(keccak256(\"onERC1155Received(address,address,uint256,uint256,bytes)\"));\n    }\n\n    function onERC1155BatchReceived(\n        address operator,\n        address from,\n        uint256[] calldata ids,\n        uint256[] calldata values,\n        bytes calldata data\n    ) external override returns(bytes4) {\n        return bytes4(keccak256(\"onERC1155BatchReceived(address,address,uint256[],uint256[],bytes)\"));\n    }\n\n    /*\n          AUCTION CHECK FUNCTIONS   \n      */\n    /// @notice Check if a bid has been made. This is applicable in the early bid scenario\n    /// to ensure that if an auction is created after an early bid, the auction\n    /// begins appropriately or is settled if the buy now price is met.\n    function _isABidMade(uint256 _auctionId) internal view returns (bool) {\n        return (idToAuction[_auctionId].numBids > 0);\n    }\n\n    function _isBidMade(uint256 _auctionId, uint256 _bidId) \n    internal view returns (bool) {\n        return auctionToBid[_auctionId][_bidId].bid > 0;\n    }\n\n    /// @notice If the buy now price is set by the seller, check that the highest bid meets that price.\n    function _isBuyNowPriceMet(uint256 _auctionId, uint256 _bidId) \n    internal view returns (bool) {\n        uint128 buyNowPrice = idToAuction[_auctionId].buyNowPrice;\n        return buyNowPrice > 0 && (auctionToBid[_auctionId][_bidId].bid >= buyNowPrice);\n    }\n\n    /// @notice Check that a bid is applicable for the purchase of the NFT.\n    /// In the case of a sale: the bid needs to meet the buyNowPrice.\n    /// In the case of an auction: the bid needs to be a % higher than the previous bid.\n    function _doesBidMeetBidRequirements(\n        uint256 _auctionId, \n        uint128 _tokenAmount, \n        bool _isOffer\n    ) internal view returns (bool) {\n        uint128 buyNowPrice = idToAuction[_auctionId].buyNowPrice;\n        //if buyNowPrice is met, ignore increase percentage\n        if (buyNowPrice > 0 && (msg.value >= buyNowPrice || _tokenAmount >= buyNowPrice)) {\n            return true;\n        }\n        if (idToAuction[_auctionId].auctionType == 1) {\n            //if the NFT is up for auction, the bid needs to be a % higher than the previous bid\n            if (idToAuction[_auctionId].numBids > 0) {\n                Bid memory highestBid = auctionToBid[_auctionId][idToAuction[_auctionId].highestBidId];\n                uint256 bidIncreaseAmount = (\n                    highestBid.bid * (10000 + _getBidIncreasePercentage(_auctionId))\n                ) / 10000;\n                return (msg.value >= bidIncreaseAmount) || (_tokenAmount >= bidIncreaseAmount);\n            } else {\n                uint256 minPrice = idToAuction[_auctionId].minPrice;\n                return (msg.value >= minPrice) || (_tokenAmount >= minPrice);\n            }\n        } else if (idToAuction[_auctionId].auctionType == 2) {\n            // if the NFT is up for declining-price sale, the bid needs to be at least the current price\n            uint256 currentPrice = _computeCurrentPrice(_auctionId);\n            return (msg.value >= currentPrice) || (_tokenAmount >= currentPrice);\n        } else {\n            // if the NFT is up for fixed-price sale or declining sale, and the bid is below the buy-now price, only offers are accepted\n            return _isOffer;\n        }\n    }\n\n    function _isWhitelistedSale(uint256 _auctionId) \n    internal view returns (bool) {\n        return (idToAuction[_auctionId].whitelistedBuyer != address(0));\n    }\n\n    /// @notice Check if payment type is matched\n    function _isPaymentAccepted(uint256 _auctionId, uint128 _tokenAmount) \n    internal view returns (bool) {\n        if (_isERC20Auction(_auctionId)) {\n            return (msg.value == 0) && (_tokenAmount > 0);\n        } else {\n            return (msg.value != 0) && (_tokenAmount == 0);\n        }\n    }\n\n    function _isERC20Auction(uint256 _auctionId) internal view returns (bool) {\n        return (idToAuction[_auctionId].auctionType != 0);\n    }\n\n    /// @notice Returns the percentage of the total bid (used to calculate fee payments)\n    function _getPortionOfBid(uint256 _totalBid, uint256 _percentage)\n    internal pure returns (uint256) {\n        return (_totalBid * _percentage).div(10000);\n    }\n\n    /**********************************/\n    /*\n                   END              \n          AUCTION CHECK FUNCTIONS   \n      */\n    /**********************************/\n    /*\n          DEFAULT GETTER FUNCTIONS  \n      */\n    /*****************************************************************\n     * These functions check if the applicable auction parameter has *\n     * been set by the NFT seller. If not, return the default value. *\n     *****************************************************************/\n    function _getBidIncreasePercentage(uint256 _auctionId) \n    internal view returns (uint32) {\n        uint32 bidIncreasePercentage = idToAuction[_auctionId].bidIncreasePercentage;\n\n        if (bidIncreasePercentage == 0) {\n            return defaultBidIncreasePercentage;\n        } else {\n            return bidIncreasePercentage;\n        }\n    }\n\n    /// @notice The default value for the NFT recipient is the highest bidder\n    function _getNftRecipient(uint256 _auctionId, uint256 _bidId) \n    internal view returns (address) {\n        address nftRecipient = auctionToBid[_auctionId][_bidId].nftRecipient;\n\n        if (nftRecipient == address(0)) {\n            return auctionToBid[_auctionId][_bidId].bidder;\n        } else {\n            return nftRecipient;\n        }\n    }\n\n    /**********************************/\n    /*\n                   END              \n          DEFAULT GETTER FUNCTIONS  \n      */\n    /**********************************/\n    /*\n              SETTER FUNCTIONS      \n      */\n\n    function setMarketplaceWallet(address _marketplaceWallet) \n    external onlyOwner {\n        require(\n            _marketplaceWallet != address(0), \n            \"Marketplace.setMarketplace# INVALID_WALLET_ADDRESS\"\n        );\n        marketplaceWallet = _marketplaceWallet;\n        emit MarketplaceWalletChanged(marketplaceWallet);\n    }\n\n    function setMarketplaceFeePortion(uint256 _marketplaceFeePortion) \n    external onlyOwner {\n        marketplaceFeePortion = _marketplaceFeePortion;\n        emit MarketplaceFeePortionChanged(marketplaceFeePortion);\n    }\n\n    function setERC20TokenForAuction(address _erc20TokenForAuction) \n    external onlyOwner {\n        require(\n            _erc20TokenForAuction != address(0), \n            \"Marketplace.setERC20TokenForAuction# INVALID_ERC20_ADDRESS\"\n        );\n        erc20TokenForAuction = _erc20TokenForAuction;\n        emit ERC20TokenForAuctionChanged(erc20TokenForAuction);\n    }\n\n    function setTrustedNftContract(address _nftContractAddress, bool _isTrusted) \n    external onlyOwner {\n        isTrustedNftContract[_nftContractAddress] = _isTrusted;\n        emit NftTokenContractTrusted(_nftContractAddress, _isTrusted);\n    }\n\n    /**********************************/\n    /*\n                   END              \n             SETTER FUNCTIONS       \n      */\n    /**********************************/\n    /*\n        TRANSFER NFTS TO CONTRACT   \n      */\n    /// @notice Transfer NFTs, without minting, to auction contract, to create an auction\n    function _transferNftToAuctionContract(uint256 _auctionId) \n    internal nonReentrant {\n        // whether seller have ability to supply the NFTs has been checked at ``enoughTokensForSale``\n        address nftSeller = idToAuction[_auctionId].nftSeller;\n        uint256[] memory tokenIds = idToAuction[_auctionId].tokenIds;\n        uint256[] memory quantities = idToAuction[_auctionId].quantities;\n        \n        ArtToken arttoken = ArtToken(idToAuction[_auctionId].nftContractAddress);\n        \n        for (uint256 i = 0; i < tokenIds.length; i++) {\n            uint256 currentBalance = arttoken.balanceOf(nftSeller, tokenIds[i]);\n            if (currentBalance < quantities[i]) {\n                idToAuction[_auctionId].transferredQuantities.push(currentBalance);\n            } else {\n                idToAuction[_auctionId].transferredQuantities.push(quantities[i]);\n            }\n        }\n        \n        arttoken.safeBatchTransferFrom(\n            nftSeller, \n            address(this), \n            tokenIds, \n            idToAuction[_auctionId].transferredQuantities, \n            \"\"\n        );\n    }\n\n    /// @notice Withdraw NFTs from auction contract, to terminate an auction without selling NFTs\n    function _withdrawNftFromAuctionContract(uint256 _auctionId) \n    internal nonReentrant {\n        ArtToken arttoken = ArtToken(idToAuction[_auctionId].nftContractAddress);\n        address nftSeller = idToAuction[_auctionId].nftSeller;\n        arttoken.safeBatchTransferFrom( \n            address(this), \n            nftSeller,\n            idToAuction[_auctionId].tokenIds, \n            idToAuction[_auctionId].transferredQuantities, \n            \"\"\n        );\n    }\n\n    /**********************************/\n    /*\n                   END              \n        TRANSFER NFTS TO CONTRACT   \n      */\n    /**********************************/\n\n    /*\n             AUCTION CREATION       \n      */\n\n    /// @notice Create an auction using custom bid increase percentage & custom auction bid period\n    function createNftAuction(\n        address _nftContractAddress,\n        uint256[] memory _tokenIds,\n        uint256[] memory _quantities,\n        uint128 _minPrice,\n        uint128 _buyNowPrice,\n        uint32 _bidIncreasePercentage\n    )\n        external\n        isNftContractTrusted(_nftContractAddress)\n        enoughTokensForSale(_nftContractAddress, _tokenIds, _quantities)\n        minPriceDoesNotExceedLimit(_buyNowPrice, _minPrice)\n    {\n        require(\n            _nftContractAddress != address(0), \n            \"Marketplace.createSale# INVALID_NFT_TOKEN_CONTRACT\"\n        );\n        require(\n            _bidIncreasePercentage >= minimumSettableIncreasePercentage,\n            \"Marketplace.createNftAuction# TOO_LOW_BID_INCREASE_PERCENTAGE\"\n        );\n\n        // set up information about the auction\n        uint256 auctionId = _auctionIdCounter.current();\n        idToAuction[auctionId].auctionType = 1;\n        idToAuction[auctionId].nftContractAddress = _nftContractAddress;\n        idToAuction[auctionId].tokenIds = _tokenIds;\n        idToAuction[auctionId].quantities = _quantities;\n        idToAuction[auctionId].bidIncreasePercentage = _bidIncreasePercentage;\n        idToAuction[auctionId].minPrice = _minPrice;\n        idToAuction[auctionId].buyNowPrice = _buyNowPrice;\n        idToAuction[auctionId].nftSeller = msg.sender;\n        idToAuction[auctionId].isOnGoing = true;\n        _auctionIdCounter.increment();\n\n        // transfer required NFTs to marketplace\n        // otherwise seller will mint them later\n        _transferNftToAuctionContract(auctionId);\n\n        emit NftAuctionCreated(auctionId);\n    }\n\n    /// @notice Create fixed-price sale\n    function createSale(\n        address _nftContractAddress,\n        uint256[] memory _tokenIds,\n        uint256[] memory _quantities,\n        uint128 _buyNowPrice,\n        address _whitelistedBuyer\n    ) \n        external\n        isNftContractTrusted(_nftContractAddress)\n        enoughTokensForSale(_nftContractAddress, _tokenIds, _quantities) \n    {\n        require(\n            _nftContractAddress != address(0), \n            \"Marketplace.createSale# INVALID_NFT_TOKEN_CONTRACT\"\n        );\n\n        // set up information about the sale\n        uint256 auctionId = _auctionIdCounter.current();\n        idToAuction[auctionId].auctionType = 0;\n        idToAuction[auctionId].nftContractAddress = _nftContractAddress;\n        idToAuction[auctionId].tokenIds = _tokenIds;\n        idToAuction[auctionId].quantities = _quantities;\n        idToAuction[auctionId].buyNowPrice = _buyNowPrice;\n        idToAuction[auctionId].nftSeller = msg.sender;\n        idToAuction[auctionId].whitelistedBuyer = _whitelistedBuyer;\n        idToAuction[auctionId].isOnGoing = true;\n        _auctionIdCounter.increment();\n        \n        // transfer required NFTs to marketplace\n        // otherwise seller will mint them later\n        _transferNftToAuctionContract(auctionId);\n\n        emit SaleCreated(auctionId);\n    }\n\n    /// @notice Create fixed-price sale\n    function createDecliningPriceSale(\n        address _nftContractAddress,\n        uint256[] memory _tokenIds,\n        uint256[] memory _quantities,\n        uint128 _startPrice,\n        uint128 _endPrice,\n        uint128 _decrementDuration\n    ) \n        external\n        isNftContractTrusted(_nftContractAddress)\n        enoughTokensForSale(_nftContractAddress, _tokenIds, _quantities) \n    {\n        require(\n            _nftContractAddress != address(0), \n            \"Marketplace.createSale# INVALID_NFT_TOKEN_CONTRACT\"\n        );\n        require(\n            _startPrice >= _endPrice, \n            \"Marketplace.createDecliningPriceSale# START_PRICE_LOWER_THAN_END_PRICE\"\n        );\n        require(\n            _decrementDuration > 0,\n            \"Marketplace.createDecliningPriceSale# INVALID_DECREMENT_DURATION\"\n        );\n\n        // set up information about the sale\n        uint256 auctionId = _auctionIdCounter.current();\n        idToAuction[auctionId].auctionType = 2;\n        idToAuction[auctionId].nftContractAddress = _nftContractAddress;\n        idToAuction[auctionId].tokenIds = _tokenIds;\n        idToAuction[auctionId].quantities = _quantities;\n        idToAuction[auctionId].minPrice = _endPrice;\n        idToAuction[auctionId].buyNowPrice = _startPrice;\n        idToAuction[auctionId].startTime = block.timestamp;\n        idToAuction[auctionId].decrementDuration = _decrementDuration;\n        idToAuction[auctionId].nftSeller = msg.sender;\n        idToAuction[auctionId].isOnGoing = true;\n        _auctionIdCounter.increment();\n        \n        // transfer required NFTs to marketplace\n        // otherwise seller will mint them later\n        _transferNftToAuctionContract(auctionId);\n\n        emit DecliningPriceSaleCreated(auctionId);\n    }\n\n    /**********************************/\n    /*\n                   END              \n             AUCTION CREATION       \n      */\n    /**********************************/\n\n    /*\n              BID FUNCTIONS        \n      */\n\n    /********************************************************************\n     * Make bids with ETH or an ERC20 Token specified by the NFT seller.*\n     * Additionally, a buyer can pay the asking price to conclude a sale*\n     * of an NFT.                                                      *\n     ********************************************************************/\n    /// @notice Make offer\n    /// @param _nftRecipient    Address of the NFT recipient if successful purchase. This should be zero if no recipient is indicated\n    function makeBid(\n        uint256 _auctionId, \n        address _nftRecipient, \n        uint128 _tokenAmount, \n        bool _isOffer\n    ) external payable auctionOngoing(_auctionId) {\n        require(\n            msg.sender != idToAuction[_auctionId].nftSeller,\n            \"Marketplace.makeBid# SELLER_CANNOT_BID_HIS_SALE\"\n        );\n        require(\n            _isPaymentAccepted(_auctionId, _tokenAmount), \n            \"Marketplace.makeBid# NOT_ACCEPTED_PAYMENT\"\n        );\n        require(\n            _doesBidMeetBidRequirements(_auctionId, _tokenAmount, _isOffer),\n            \"Marketplace.makeBid# NOT_ENOUGH_FUND_TO_BID\"\n        );\n        // Check if the highest bidder can purchase this NFT\n        require(\n            !_isWhitelistedSale(_auctionId) || \n            (idToAuction[_auctionId].whitelistedBuyer == msg.sender),\n            \"Marketplace.makeBid# NOT_WHITELISTED_BUYER\"\n        );\n\n        // create bid\n        uint256 numBids = idToAuction[_auctionId].numBids;\n        auctionToBid[_auctionId][numBids].bidder = msg.sender;\n        auctionToBid[_auctionId][numBids].nftRecipient = _nftRecipient;\n        auctionToBid[_auctionId][numBids].isOffer = _isOffer;\n        idToAuction[_auctionId].numBids++;\n        \n        // transfer cash to marketplace and update highest bid\n        uint256 highestBidId = idToAuction[_auctionId].highestBidId;\n        if (_isERC20Auction(_auctionId)) {\n            // transfer cash to marketplace\n            IERC20Upgradeable(erc20TokenForAuction).transferFrom(msg.sender, address(this), _tokenAmount);\n            auctionToBid[_auctionId][numBids].bid = _tokenAmount;\n\n            // update highest bid\n            if (_tokenAmount > auctionToBid[_auctionId][highestBidId].bid)\n                idToAuction[_auctionId].highestBidId = numBids;\n            \n            emit BidMade(_auctionId, numBids, msg.sender, _tokenAmount);\n        } else {\n            // transfer cash to marketplace\n            auctionToBid[_auctionId][numBids].bid = msg.value;\n\n            // update highest bid\n            if (msg.value > auctionToBid[_auctionId][highestBidId].bid)\n                idToAuction[_auctionId].highestBidId = numBids;\n            \n            emit BidMade(_auctionId, numBids, msg.sender, msg.value);\n        }\n\n        if (_isBuyNowPriceMet(_auctionId, numBids)) {\n            // finish auction if buy-now price is met, or current price is met\n            _transferNftAndPaySeller(_auctionId, numBids);\n            return;\n        } else if (idToAuction[_auctionId].auctionType == 2) {\n            // if ``auctionType == 2`` then ``_doesBidMeetBidRequirements`` implies that the bid meets the current price, hence transfer the NFTs immediately\n            _transferNftAndPaySeller(_auctionId, numBids);\n            return;\n        }\n    }\n\n    /// @notice Compute current price for declining-price sale\n    function _computeCurrentPrice(uint256 _auctionId) \n    internal view returns (uint256) {\n        uint256 endPricePortion = (\n            block.timestamp - idToAuction[_auctionId].startTime\n        ) * 10000 / idToAuction[_auctionId].decrementDuration;\n        endPricePortion = (endPricePortion > 10000)? 10000 : endPricePortion;\n        uint256 startPricePortion = 10000 - endPricePortion;\n        uint256 currentPrice = (\n            startPricePortion * idToAuction[_auctionId].buyNowPrice +\n            endPricePortion * idToAuction[_auctionId].minPrice\n        ) / 10000;\n        return currentPrice;\n    }\n\n    /**********************************/\n    /*\n                   END              \n              BID FUNCTIONS         \n      */\n    /**********************************/\n\n    /*\n              CLEAN AUCTION         \n      */\n    // @notice Withdraw and delete all bids, then delete auction \n    function _cleanAuction(uint256 _auctionId) internal {\n        _withdrawAllBids(_auctionId);\n        delete idToAuction[_auctionId];\n    }\n\n    /// @notice Withdraw all bids and save bidded amounts as credits\n    function _withdrawAllBids(uint256 _auctionId) internal {\n        uint256 numBids = idToAuction[_auctionId].numBids;\n        if (_isERC20Auction(_auctionId)) {\n            for (uint256 i = 0; i < numBids; i++) {\n                if (_isBidMade(_auctionId, i)) {\n                    Bid memory bid = auctionToBid[_auctionId][i];\n                    tokenCredits[bid.bidder] += bid.bid;\n                    delete auctionToBid[_auctionId][i];\n                }\n            }\n        } else {\n            for (uint256 i = 0; i < numBids; i++) {\n                if (_isBidMade(_auctionId, i)) {\n                    Bid memory bid = auctionToBid[_auctionId][i];\n                    ethCredits[bid.bidder] += bid.bid;\n                    delete auctionToBid[_auctionId][i];\n                }\n            }\n        }\n    }\n\n    /**********************************/\n    /*\n                   END              \n              CLEAN AUCTION         \n      */\n    /**********************************/\n    /**********************************/\n    /*\n        TRANSFER NFT & PAY SELLER   \n      */\n    /// @notice Transfer NFT and pay seller\n    /// @dev Pay marketplace fee and seller fee, lazily mint unavailable NFTs, transfer them to seller, delete the chosen bid, withdraw all other bids, then delete the auction\n    function _transferNftAndPaySeller(uint256 _auctionId, uint256 _bidId) internal {\n        address _nftSeller = idToAuction[_auctionId].nftSeller;\n        uint256 _nftBid = auctionToBid[_auctionId][_bidId].bid;\n\n        // pay marketplace fee and seller fee\n        uint256 marketplaceFee = _getPortionOfBid(_nftBid, marketplaceFeePortion);\n        uint256 sellerFee = _nftBid - marketplaceFee;\n        if (_isERC20Auction(_auctionId)) {\n            IERC20Upgradeable erc20 = IERC20Upgradeable(erc20TokenForAuction);\n            erc20.transfer(marketplaceWallet, marketplaceFee);\n            erc20.transfer(_nftSeller, sellerFee);\n        } else {\n            payable(marketplaceWallet).transfer(marketplaceFee);\n            payable(_nftSeller).transfer(sellerFee);\n        }\n\n        _transferNftToRecipient(_auctionId, _bidId);\n\n        delete auctionToBid[_auctionId][_bidId];\n        _cleanAuction(_auctionId);\n\n        emit NFTTransferredAndSellerPaid(\n            _auctionId, \n            _bidId,\n            idToAuction[_auctionId].tokenIds,\n            idToAuction[_auctionId].quantities,\n            _nftBid,\n            msg.sender,\n            _getNftRecipient(_auctionId, _bidId),\n            block.timestamp\n        );\n    }\n\n    /// @notice Lazily mint unavailable NFTs and transfer them to buyer\n    function _transferNftToRecipient(uint256 _auctionId, uint256 _bidId) \n    internal nonReentrant {\n        ArtToken arttoken = ArtToken(idToAuction[_auctionId].nftContractAddress);\n        address _nftRecipient = _getNftRecipient(_auctionId, _bidId);\n\n        // cannot use ``batchMint()`` since not the marketplace does not have rights to mint all NFTs \n        uint256[] memory tokenIds = idToAuction[_auctionId].tokenIds;\n        uint256[] memory quantities = idToAuction[_auctionId].quantities;\n        for (uint256 i = 0; i < tokenIds.length; i++) {\n            uint256 quantitiesToMint = quantities[i] - idToAuction[_auctionId].transferredQuantities[i];\n            if (quantitiesToMint > 0) {\n                arttoken.mint(\n                    address(this), \n                    tokenIds[i], \n                    quantitiesToMint,\n                    \"\"\n                );\n            }\n        }\n\n        arttoken.safeBatchTransferFrom(\n            address(this), _nftRecipient, tokenIds, quantities, \"\"\n        );\n    }\n\n    /**********************************/\n    /*\n                   END              \n        TRANSFER NFT & PAY SELLER   \n      */\n    /**********************************/\n\n    /*\n            SETTLE & WITHDRAW       \n      */\n    /// @notice For marketplace owner to stop an outdated auction\n    function stopAuction(uint256 _auctionId) \n    external onlyOwner auctionOngoing(_auctionId) {\n        idToAuction[_auctionId].isOnGoing = false;\n\n        // If there is no bid made to the auction, the auction is withdrawn\n        // otherwise it is left on the marketplace until the seller settles the auction\n        if (idToAuction[_auctionId].numBids == 0) {\n            _withdrawNftFromAuctionContract(_auctionId);\n            _cleanAuction(_auctionId);\n        }\n\n        emit AuctionStopped(_auctionId);\n    }\n\n    /// @notice The seller can settle an auction after termination to take a bid and delete the auction\n    function settleAuction(\n        uint256 _auctionId, \n        uint256 _bidId, \n        bool takeHighestBid\n    ) external onlyNftSeller(_auctionId) {\n        require(\n            !idToAuction[_auctionId].isOnGoing,\n            \"Marketplace.settleAuction# AUCTION_NOT_OVER\"\n        );\n        if (takeHighestBid) {\n            _bidId = idToAuction[_auctionId].highestBidId;\n        }\n        require(\n            _isBidMade(_auctionId, _bidId), \n            \"Marketplace.settleAuction# INVALID_BID\"\n        );\n        _transferNftAndPaySeller(_auctionId, _bidId);\n        emit AuctionSettled(_auctionId, _bidId);\n    }\n\n    /// @notice The seller can prematurely close an auction, or withdraw an ended auction without taking offer\n    /// @dev Marketplace owner can use this function to withdraw an auction, which has been for too long without interaction\n    /// @dev Withdraw NFTs from marketplace, withdraw all bids from the auction, then delete the auction\n    function withdrawAuction(uint256 _auctionId) external {\n        require(\n            (msg.sender == idToAuction[_auctionId].nftSeller) ||\n            (msg.sender == owner()),\n            \"Marketplace.onlyNftSeller# ONLY_NFT_SELLER\"\n        );\n        _withdrawNftFromAuctionContract(_auctionId);\n        _cleanAuction(_auctionId);\n        emit AuctionWithdrawn(_auctionId);\n    }\n\n    /// @notice Withdraw bid and pay money back\n    /// @dev Withdrawer must pay the gas to repick the highest bidder\n    /// @dev If everybody has withdrawn their bid, ``numBids`` is set to zero\n    /// @dev Withdrawn cash will be credited to the marketplace\n    function withdrawBid(uint256 _auctionId, uint256 _bidId) \n    external auctionOngoing(_auctionId) {\n        Bid memory bid = auctionToBid[_auctionId][_bidId];\n        // _isBidMade(_auctionId, _bidId) is implicitly checked here\n        require(\n            msg.sender == bid.bidder, \n            \"Marketplace.withdrawBid# ONLY_BIDDER_CAN_WITHDRAW_BID\"\n        );\n        \n        // repick highest bid\n        uint256 highestBidId = 0;\n        uint256 highestBid = 0;\n        uint256 numBids = idToAuction[_auctionId].numBids; \n        for (uint256 i = 0; i < numBids; i++)\n            if (\n                (auctionToBid[_auctionId][i].bid > highestBid) &&\n                (i != _bidId)\n            ) {\n                highestBidId = i;\n                highestBid = auctionToBid[_auctionId][i].bid;\n            }\n        \n        // check if all bidders has withdrawn their bids, if yes then update ``numBids`` to zero\n        if (highestBid > 0) {\n            idToAuction[_auctionId].highestBidId = highestBidId;\n        } else {\n            idToAuction[_auctionId].highestBidId = 0;\n            idToAuction[_auctionId].numBids = 0;\n        }\n\n        // transfer withdrawn bid to the caller\n        if (_isERC20Auction(_auctionId)) {\n            tokenCredits[bid.bidder] += bid.bid;\n        } else {\n            ethCredits[bid.bidder] += bid.bid;\n        }\n\n        // delete bid\n        delete auctionToBid[_auctionId][_bidId];\n        \n        emit BidWithdrawn(_auctionId, _bidId);\n    }\n\n    /**********************************/\n    /*\n                   END              \n            SETTLE & WITHDRAW       \n      */\n    /**********************************/\n\n    /*\n             UPDATE AUCTION         \n      */\n    /// @notice The seller can update whitelisted buyer for a fixed-price sale\n    /// @dev Cannot update whitelisted buyer if a bid has been made\n    function updateWhitelistedBuyer(\n        uint256 _auctionId, \n        address _newWhitelistedBuyer\n    ) external auctionOngoing(_auctionId) onlyNftSeller(_auctionId) {\n        require(\n            idToAuction[_auctionId].auctionType == 0, \n            \"Marketplace.updateWhitelistedBuyer# NOT_A_SALE\"\n        );\n        require(\n            !_isABidMade(_auctionId), \n            \"Marketplace.updateWhitelistedBuyer# A_BID_HAS_BEEN_MADE\"\n        );\n        idToAuction[_auctionId].whitelistedBuyer = _newWhitelistedBuyer;\n        emit WhitelistedBuyerUpdated(_auctionId, _newWhitelistedBuyer);\n    }\n\n    /// @notice The seller can update reserve price for timed auction\n    function updateMinimumPrice(uint256 _auctionId, uint128 _newMinPrice)\n        external\n        auctionOngoing(_auctionId)\n        onlyNftSeller(_auctionId)\n        minPriceDoesNotExceedLimit(idToAuction[_auctionId].buyNowPrice, _newMinPrice)\n    {\n        require(\n            idToAuction[_auctionId].auctionType == 1, \n            \"Marketplace.updateMinimumPrice# NOT_AN_AUCTION\"\n        );\n        idToAuction[_auctionId].minPrice = _newMinPrice;\n        emit MinimumPriceUpdated(_auctionId, _newMinPrice);\n    }\n\n    /// @notice The seller can update buy-now price\n    /// @dev Buy-now price cannot be updated for declining-price sale\n    /// @dev If buy-now price is met by the highest bid, the sale is immediately terminated, and the highest bid is automatically taken\n    function updateBuyNowPrice(uint256 _auctionId, uint128 _newBuyNowPrice)\n        external\n        auctionOngoing(_auctionId)\n        onlyNftSeller(_auctionId)\n        minPriceDoesNotExceedLimit(_newBuyNowPrice, idToAuction[_auctionId].minPrice)\n    {\n        require(\n            idToAuction[_auctionId].auctionType != 2,\n            \"Marketplace.updateBuyNowPrice# IMMUTABLE_BUYNOW_PRICE\"\n        );\n        idToAuction[_auctionId].buyNowPrice = _newBuyNowPrice;\n\n        emit BuyNowPriceUpdated(_auctionId, _newBuyNowPrice);\n\n        uint256 highestBidId = idToAuction[_auctionId].highestBidId;\n        if (_isBuyNowPriceMet(_auctionId, highestBidId)) {\n            _transferNftAndPaySeller(_auctionId, highestBidId);\n        }\n    }\n\n    /// @notice The NFT seller can take offer and terminate an ongoing fixed-price sale\n    function takeOffer(uint256 _auctionId, uint256 _bidId)\n    external auctionOngoing(_auctionId) onlyNftSeller(_auctionId) {\n        // _isBidMade(_auctionId, _bidId) is implicitly checked here\n        require(\n            idToAuction[_auctionId].auctionType == 0,\n            \"Marketplace.takeOffer# OFFERS_ARE_ALLOWED_ONLY_IN_FIXED_PRICE_SALE\"\n        );\n        require(\n            auctionToBid[_auctionId][_bidId].isOffer, \n            \"Marketplace.takeOffer# NOT_AN_OFFER\"\n        );\n        _transferNftAndPaySeller(_auctionId, _bidId);\n        emit OfferTaken(_auctionId, _bidId);\n    }\n\n    /// @notice Withdraw credited value or ERC20 tokens from marketplace\n    /// @dev Withdraw all credited value from marketplace and set the credit variable to zero\n    function withdrawAllCredits() external nonReentrant {\n        // transfer ETH credits\n        uint256 ethAmount = ethCredits[msg.sender];\n        if (ethAmount > 0) {\n            ethCredits[msg.sender] = 0;\n            payable(msg.sender).transfer(ethAmount);\n        }\n\n        // transfer token credits\n        uint256 tokenAmount = tokenCredits[msg.sender];\n        if (tokenAmount > 0) {\n            tokenCredits[msg.sender] = 0;\n            IERC20Upgradeable(erc20TokenForAuction).transfer(msg.sender, tokenAmount);\n        }\n\n        emit CreditWithdrawn(ethAmount, tokenAmount);\n    }\n\n    /**********************************/\n    /*\n                   END              \n             UPDATE AUCTION         \n      */\n    /**********************************/\n}",
  "sourcePath": "/home/giangh/Desktop/Projects/marketplace/contracts/Marketplace.sol",
  "compiler": {
    "name": "solc",
    "version": "0.8.11+commit.d7f03943.Emscripten.clang"
  },
  "schemaVersion": "3.4.6",
  "updatedAt": "2022-03-18T16:46:19.810Z",
  "networkType": "ethereum",
  "devdoc": {
    "kind": "dev",
    "methods": {
      "makeBid(uint256,address,uint128,bool)": {
        "params": {
          "_nftRecipient": "Address of the NFT recipient if successful purchase. This should be zero if no recipient is indicated"
        }
      },
      "onERC1155BatchReceived(address,address,uint256[],uint256[],bytes)": {
        "details": "Handles the receipt of a multiple ERC1155 token types. This function is called at the end of a `safeBatchTransferFrom` after the balances have been updated. NOTE: To accept the transfer(s), this must return `bytes4(keccak256(\"onERC1155BatchReceived(address,address,uint256[],uint256[],bytes)\"))` (i.e. 0xbc197c81, or its own function selector).",
        "params": {
          "data": "Additional data with no specified format",
          "from": "The address which previously owned the token",
          "ids": "An array containing ids of each token being transferred (order and length must match values array)",
          "operator": "The address which initiated the batch transfer (i.e. msg.sender)",
          "values": "An array containing amounts of each token being transferred (order and length must match ids array)"
        },
        "returns": {
          "_0": "`bytes4(keccak256(\"onERC1155BatchReceived(address,address,uint256[],uint256[],bytes)\"))` if transfer is allowed"
        }
      },
      "onERC1155Received(address,address,uint256,uint256,bytes)": {
        "details": "Handles the receipt of a single ERC1155 token type. This function is called at the end of a `safeTransferFrom` after the balance has been updated. NOTE: To accept the transfer, this must return `bytes4(keccak256(\"onERC1155Received(address,address,uint256,uint256,bytes)\"))` (i.e. 0xf23a6e61, or its own function selector).",
        "params": {
          "data": "Additional data with no specified format",
          "from": "The address which previously owned the token",
          "id": "The ID of the token being transferred",
          "operator": "The address which initiated the transfer (i.e. msg.sender)",
          "value": "The amount of tokens being transferred"
        },
        "returns": {
          "_0": "`bytes4(keccak256(\"onERC1155Received(address,address,uint256,uint256,bytes)\"))` if transfer is allowed"
        }
      },
      "owner()": {
        "details": "Returns the address of the current owner."
      },
      "renounceOwnership()": {
        "details": "Leaves the contract without owner. It will not be possible to call `onlyOwner` functions anymore. Can only be called by the current owner. NOTE: Renouncing ownership will leave the contract without an owner, thereby removing any functionality that is only available to the owner."
      },
      "supportsInterface(bytes4)": {
        "details": "See {IERC165-supportsInterface}."
      },
      "transferOwnership(address)": {
        "details": "Transfers ownership of the contract to a new account (`newOwner`). Can only be called by the current owner."
      },
      "updateBuyNowPrice(uint256,uint128)": {
        "details": "Buy-now price cannot be updated for declining-price saleIf buy-now price is met by the highest bid, the sale is immediately terminated, and the highest bid is automatically taken"
      },
      "updateWhitelistedBuyer(uint256,address)": {
        "details": "Cannot update whitelisted buyer if a bid has been made"
      },
      "withdrawAllCredits()": {
        "details": "Withdraw all credited value from marketplace and set the credit variable to zero"
      },
      "withdrawAuction(uint256)": {
        "details": "Marketplace owner can use this function to withdraw an auction, which has been for too long without interactionWithdraw NFTs from marketplace, withdraw all bids from the auction, then delete the auction"
      },
      "withdrawBid(uint256,uint256)": {
        "details": "Withdrawer must pay the gas to repick the highest bidderIf everybody has withdrawn their bid, ``numBids`` is set to zeroWithdrawn cash will be credited to the marketplace"
      }
    },
    "title": "An Auction Contract for bidding and selling single and batched NFTs",
    "version": 1
  },
  "userdoc": {
    "kind": "user",
    "methods": {
      "auctionToBid(uint256,uint256)": {
        "notice": "autionId --> bidId --> Bid"
      },
      "createDecliningPriceSale(address,uint256[],uint256[],uint128,uint128,uint128)": {
        "notice": "Create fixed-price sale"
      },
      "createNftAuction(address,uint256[],uint256[],uint128,uint128,uint32)": {
        "notice": "Create an auction using custom bid increase percentage & custom auction bid period"
      },
      "createSale(address,uint256[],uint256[],uint128,address)": {
        "notice": "Create fixed-price sale"
      },
      "defaultBidIncreasePercentage()": {
        "notice": "Default values that are used if not specified by the NFT seller"
      },
      "erc20TokenForAuction()": {
        "notice": "ERC20 token used for timed-auction payment"
      },
      "ethCredits(address)": {
        "notice": "Failed transfer ETHs"
      },
      "idToAuction(uint256)": {
        "notice": "auctionId --> Auction"
      },
      "isTrustedNftContract(address)": {
        "notice": "nftContractAddress --> isApproved"
      },
      "makeBid(uint256,address,uint128,bool)": {
        "notice": "Make offer"
      },
      "marketplaceWallet()": {
        "notice": "Fees need to be paid for successful purchase"
      },
      "settleAuction(uint256,uint256,bool)": {
        "notice": "The seller can settle an auction after termination to take a bid and delete the auction"
      },
      "stopAuction(uint256)": {
        "notice": "For marketplace owner to stop an outdated auction"
      },
      "takeOffer(uint256,uint256)": {
        "notice": "The NFT seller can take offer and terminate an ongoing fixed-price sale"
      },
      "tokenCredits(address)": {
        "notice": "Failed transfer tokens"
      },
      "updateBuyNowPrice(uint256,uint128)": {
        "notice": "The seller can update buy-now price"
      },
      "updateMinimumPrice(uint256,uint128)": {
        "notice": "The seller can update reserve price for timed auction"
      },
      "updateWhitelistedBuyer(uint256,address)": {
        "notice": "The seller can update whitelisted buyer for a fixed-price sale"
      },
      "withdrawAllCredits()": {
        "notice": "Withdraw credited value or ERC20 tokens from marketplace"
      },
      "withdrawAuction(uint256)": {
        "notice": "The seller can prematurely close an auction, or withdraw an ended auction without taking offer"
      },
      "withdrawBid(uint256,uint256)": {
        "notice": "Withdraw bid and pay money back"
      }
    },
    "notice": "This contract can be used for auctioning any NFTs, and accepts any ERC20 token as payment",
    "version": 1
  }
}