{
  "contractName": "WETH10",
  "abi": [
    {
      "inputs": [],
      "stateMutability": "nonpayable",
      "type": "constructor"
    },
    {
      "anonymous": false,
      "inputs": [
        {
          "indexed": true,
          "internalType": "address",
          "name": "owner",
          "type": "address"
        },
        {
          "indexed": true,
          "internalType": "address",
          "name": "spender",
          "type": "address"
        },
        {
          "indexed": false,
          "internalType": "uint256",
          "name": "value",
          "type": "uint256"
        }
      ],
      "name": "Approval",
      "type": "event"
    },
    {
      "anonymous": false,
      "inputs": [
        {
          "indexed": true,
          "internalType": "address",
          "name": "from",
          "type": "address"
        },
        {
          "indexed": true,
          "internalType": "address",
          "name": "to",
          "type": "address"
        },
        {
          "indexed": false,
          "internalType": "uint256",
          "name": "value",
          "type": "uint256"
        }
      ],
      "name": "Transfer",
      "type": "event"
    },
    {
      "inputs": [
        {
          "internalType": "address",
          "name": "",
          "type": "address"
        },
        {
          "internalType": "address",
          "name": "",
          "type": "address"
        }
      ],
      "name": "allowance",
      "outputs": [
        {
          "internalType": "uint256",
          "name": "",
          "type": "uint256"
        }
      ],
      "stateMutability": "view",
      "type": "function",
      "constant": true
    },
    {
      "inputs": [
        {
          "internalType": "address",
          "name": "",
          "type": "address"
        }
      ],
      "name": "balanceOf",
      "outputs": [
        {
          "internalType": "uint256",
          "name": "",
          "type": "uint256"
        }
      ],
      "stateMutability": "view",
      "type": "function",
      "constant": true
    },
    {
      "inputs": [],
      "name": "decimals",
      "outputs": [
        {
          "internalType": "uint8",
          "name": "",
          "type": "uint8"
        }
      ],
      "stateMutability": "view",
      "type": "function",
      "constant": true
    },
    {
      "inputs": [],
      "name": "deploymentChainId",
      "outputs": [
        {
          "internalType": "uint256",
          "name": "",
          "type": "uint256"
        }
      ],
      "stateMutability": "view",
      "type": "function",
      "constant": true
    },
    {
      "inputs": [],
      "name": "name",
      "outputs": [
        {
          "internalType": "string",
          "name": "",
          "type": "string"
        }
      ],
      "stateMutability": "view",
      "type": "function",
      "constant": true
    },
    {
      "inputs": [],
      "name": "symbol",
      "outputs": [
        {
          "internalType": "string",
          "name": "",
          "type": "string"
        }
      ],
      "stateMutability": "view",
      "type": "function",
      "constant": true
    },
    {
      "stateMutability": "payable",
      "type": "receive",
      "payable": true
    },
    {
      "inputs": [],
      "name": "totalSupply",
      "outputs": [
        {
          "internalType": "uint256",
          "name": "",
          "type": "uint256"
        }
      ],
      "stateMutability": "view",
      "type": "function",
      "constant": true
    },
    {
      "inputs": [],
      "name": "deposit",
      "outputs": [],
      "stateMutability": "payable",
      "type": "function",
      "payable": true
    },
    {
      "inputs": [
        {
          "internalType": "address",
          "name": "to",
          "type": "address"
        }
      ],
      "name": "depositTo",
      "outputs": [],
      "stateMutability": "payable",
      "type": "function",
      "payable": true
    },
    {
      "inputs": [
        {
          "internalType": "address",
          "name": "to",
          "type": "address"
        },
        {
          "internalType": "bytes",
          "name": "data",
          "type": "bytes"
        }
      ],
      "name": "depositToAndCall",
      "outputs": [
        {
          "internalType": "bool",
          "name": "success",
          "type": "bool"
        }
      ],
      "stateMutability": "payable",
      "type": "function",
      "payable": true
    },
    {
      "inputs": [
        {
          "internalType": "uint256",
          "name": "value",
          "type": "uint256"
        }
      ],
      "name": "withdraw",
      "outputs": [],
      "stateMutability": "nonpayable",
      "type": "function"
    },
    {
      "inputs": [
        {
          "internalType": "address payable",
          "name": "to",
          "type": "address"
        },
        {
          "internalType": "uint256",
          "name": "value",
          "type": "uint256"
        }
      ],
      "name": "withdrawTo",
      "outputs": [],
      "stateMutability": "nonpayable",
      "type": "function"
    },
    {
      "inputs": [
        {
          "internalType": "address",
          "name": "from",
          "type": "address"
        },
        {
          "internalType": "address payable",
          "name": "to",
          "type": "address"
        },
        {
          "internalType": "uint256",
          "name": "value",
          "type": "uint256"
        }
      ],
      "name": "withdrawFrom",
      "outputs": [],
      "stateMutability": "nonpayable",
      "type": "function"
    },
    {
      "inputs": [
        {
          "internalType": "address",
          "name": "spender",
          "type": "address"
        },
        {
          "internalType": "uint256",
          "name": "value",
          "type": "uint256"
        }
      ],
      "name": "approve",
      "outputs": [
        {
          "internalType": "bool",
          "name": "",
          "type": "bool"
        }
      ],
      "stateMutability": "nonpayable",
      "type": "function"
    },
    {
      "inputs": [
        {
          "internalType": "address",
          "name": "spender",
          "type": "address"
        },
        {
          "internalType": "uint256",
          "name": "value",
          "type": "uint256"
        },
        {
          "internalType": "bytes",
          "name": "data",
          "type": "bytes"
        }
      ],
      "name": "approveAndCall",
      "outputs": [
        {
          "internalType": "bool",
          "name": "",
          "type": "bool"
        }
      ],
      "stateMutability": "nonpayable",
      "type": "function"
    },
    {
      "inputs": [
        {
          "internalType": "address",
          "name": "to",
          "type": "address"
        },
        {
          "internalType": "uint256",
          "name": "value",
          "type": "uint256"
        }
      ],
      "name": "transfer",
      "outputs": [
        {
          "internalType": "bool",
          "name": "",
          "type": "bool"
        }
      ],
      "stateMutability": "nonpayable",
      "type": "function"
    },
    {
      "inputs": [
        {
          "internalType": "address",
          "name": "from",
          "type": "address"
        },
        {
          "internalType": "address",
          "name": "to",
          "type": "address"
        },
        {
          "internalType": "uint256",
          "name": "value",
          "type": "uint256"
        }
      ],
      "name": "transferFrom",
      "outputs": [
        {
          "internalType": "bool",
          "name": "",
          "type": "bool"
        }
      ],
      "stateMutability": "nonpayable",
      "type": "function"
    },
    {
      "inputs": [
        {
          "internalType": "address",
          "name": "to",
          "type": "address"
        },
        {
          "internalType": "uint256",
          "name": "value",
          "type": "uint256"
        },
        {
          "internalType": "bytes",
          "name": "data",
          "type": "bytes"
        }
      ],
      "name": "transferAndCall",
      "outputs": [
        {
          "internalType": "bool",
          "name": "",
          "type": "bool"
        }
      ],
      "stateMutability": "nonpayable",
      "type": "function"
    }
  ],
  "bytecode": "0x60a060405234801561001057600080fd5b50466080526080516117a561003060003960006103e601526117a56000f3fe60806040526004361061012d5760003560e01c806370a08231116100a5578063b760faf911610074578063cd0d009611610059578063cd0d0096146103d4578063d0e30db014610408578063dd62ed3e1461041057600080fd5b8063b760faf9146103a1578063cae9ca51146103b457600080fd5b806370a08231146102eb5780639555a9421461031857806395d89b4114610338578063a9059cbb1461038157600080fd5b806323b872dd116100fc578063313ce567116100e1578063313ce567146102915780634000aea0146102b85780635ddb7d7e146102d857600080fd5b806323b872dd146102515780632e1a7d4d1461027157600080fd5b806306fdde0314610183578063095ea7b3146101e257806318160ddd14610212578063205c28781461022f57600080fd5b3661017e57336000908152602081905260408120805434929061015190849061146e565b909155505060405134815233906000906000805160206117508339815191529060200160405180910390a3005b600080fd5b34801561018f57600080fd5b506101cc6040518060400160405280601181526020017f577261707065642045746865722076313000000000000000000000000000000081525081565b6040516101d99190611486565b60405180910390f35b3480156101ee57600080fd5b506102026101fd3660046114f3565b610448565b60405190151581526020016101d9565b34801561021e57600080fd5b50475b6040519081526020016101d9565b34801561023b57600080fd5b5061024f61024a3660046114f3565b6104b4565b005b34801561025d57600080fd5b5061020261026c36600461151f565b61060a565b34801561027d57600080fd5b5061024f61028c366004611560565b610973565b34801561029d57600080fd5b506102a6601281565b60405160ff90911681526020016101d9565b3480156102c457600080fd5b506102026102d33660046115c2565b610ab8565b6102026102e636600461161e565b610d6e565b3480156102f757600080fd5b50610221610306366004611673565b60006020819052908152604090205481565b34801561032457600080fd5b5061024f61033336600461151f565b610e49565b34801561034457600080fd5b506101cc6040518060400160405280600681526020017f574554483130000000000000000000000000000000000000000000000000000081525081565b34801561038d57600080fd5b5061020261039c3660046114f3565b6110a7565b61024f6103af366004611673565b6112e8565b3480156103c057600080fd5b506102026103cf3660046115c2565b611347565b3480156103e057600080fd5b506102217f000000000000000000000000000000000000000000000000000000000000000081565b61024f6113f3565b34801561041c57600080fd5b5061022161042b366004611697565b600160209081526000928352604080842090915290825290205481565b3360008181526001602090815260408083206001600160a01b038716808552925280832085905551919290917f8c5be1e5ebec7d5bd14f71427d1e84f3dd0314c0f7b2291e5b200ac8c7c3b925906104a39086815260200190565b60405180910390a350600192915050565b33600090815260208190526040902054818110156105235760405162461bcd60e51b815260206004820152602160248201527f574554483a206275726e20616d6f756e7420657863656564732062616c616e636044820152606560f81b60648201526084015b60405180910390fd5b61052d82826116d0565b336000818152602081815260408083209490945592518581529092600080516020611750833981519152910160405180910390a36000836001600160a01b03168360405160006040518083038185875af1925050503d80600081146105ae576040519150601f19603f3d011682016040523d82523d6000602084013e6105b3565b606091505b50509050806106045760405162461bcd60e51b815260206004820152601960248201527f574554483a20455448207472616e73666572206661696c656400000000000000604482015260640161051a565b50505050565b60006001600160a01b0384163314610706576001600160a01b0384166000908152600160209081526040808320338452909152902054600019811461070457828110156106995760405162461bcd60e51b815260206004820152601f60248201527f574554483a2072657175657374206578636565647320616c6c6f77616e636500604482015260640161051a565b60006106a584836116d0565b6001600160a01b038716600081815260016020908152604080832033808552908352928190208590555184815293945090927f8c5be1e5ebec7d5bd14f71427d1e84f3dd0314c0f7b2291e5b200ac8c7c3b925910160405180910390a3505b505b6001600160a01b03831615610814576001600160a01b0384166000908152602081905260409020548281101561078c5760405162461bcd60e51b815260206004820152602560248201527f574554483a207472616e7366657220616d6f756e7420657863656564732062616044820152646c616e636560d81b606482015260840161051a565b61079683826116d0565b6001600160a01b0380871660009081526020819052604080822093909355908616815290812080548592906107cc90849061146e565b92505081905550836001600160a01b0316856001600160a01b03166000805160206117508339815191528560405161080691815260200190565b60405180910390a350610969565b6001600160a01b038416600090815260208190526040902054828110156108875760405162461bcd60e51b815260206004820152602160248201527f574554483a206275726e20616d6f756e7420657863656564732062616c616e636044820152606560f81b606482015260840161051a565b61089183826116d0565b6001600160a01b0386166000818152602081815260408083209490945592518681529092600080516020611750833981519152910160405180910390a3604051600090339085908381818185875af1925050503d8060008114610910576040519150601f19603f3d011682016040523d82523d6000602084013e610915565b606091505b50509050806109665760405162461bcd60e51b815260206004820152601960248201527f574554483a20455448207472616e73666572206661696c656400000000000000604482015260640161051a565b50505b5060019392505050565b33600090815260208190526040902054818110156109dd5760405162461bcd60e51b815260206004820152602160248201527f574554483a206275726e20616d6f756e7420657863656564732062616c616e636044820152606560f81b606482015260840161051a565b6109e782826116d0565b336000818152602081815260408083209490945592518581529092600080516020611750833981519152910160405180910390a3604051600090339084908381818185875af1925050503d8060008114610a5d576040519150601f19603f3d011682016040523d82523d6000602084013e610a62565b606091505b5050905080610ab35760405162461bcd60e51b815260206004820152601960248201527f574554483a20455448207472616e73666572206661696c656400000000000000604482015260640161051a565b505050565b60006001600160a01b03851615610bad573360009081526020819052604090205484811015610b375760405162461bcd60e51b815260206004820152602560248201527f574554483a207472616e7366657220616d6f756e7420657863656564732062616044820152646c616e636560d81b606482015260840161051a565b610b4185826116d0565b33600090815260208190526040808220929092556001600160a01b03881681529081208054879290610b7490849061146e565b90915550506040518581526001600160a01b0387169033906000805160206117508339815191529060200160405180910390a350610cf0565b3360009081526020819052604090205484811015610c175760405162461bcd60e51b815260206004820152602160248201527f574554483a206275726e20616d6f756e7420657863656564732062616c616e636044820152606560f81b606482015260840161051a565b610c2185826116d0565b336000818152602081815260408083209490945592518881529092600080516020611750833981519152910160405180910390a3604051600090339087908381818185875af1925050503d8060008114610c97576040519150601f19603f3d011682016040523d82523d6000602084013e610c9c565b606091505b5050905080610ced5760405162461bcd60e51b815260206004820152601960248201527f574554483a20455448207472616e73666572206661696c656400000000000000604482015260640161051a565b50505b604051635260769b60e11b81526001600160a01b0386169063a4c0ed3690610d229033908890889088906004016116e7565b6020604051808303816000875af1158015610d41573d6000803e3d6000fd5b505050506040513d601f19601f82011682018060405250810190610d65919061172d565b95945050505050565b6001600160a01b038316600090815260208190526040812080543491908390610d9890849061146e565b90915550506040513481526001600160a01b038516906000906000805160206117508339815191529060200160405180910390a3604051635260769b60e11b81526001600160a01b0385169063a4c0ed3690610dfe9033903490889088906004016116e7565b6020604051808303816000875af1158015610e1d573d6000803e3d6000fd5b505050506040513d601f19601f82011682018060405250810190610e41919061172d565b949350505050565b6001600160a01b0383163314610f43576001600160a01b03831660009081526001602090815260408083203384529091529020546000198114610f415781811015610ed65760405162461bcd60e51b815260206004820152601f60248201527f574554483a2072657175657374206578636565647320616c6c6f77616e636500604482015260640161051a565b6000610ee283836116d0565b6001600160a01b038616600081815260016020908152604080832033808552908352928190208590555184815293945090927f8c5be1e5ebec7d5bd14f71427d1e84f3dd0314c0f7b2291e5b200ac8c7c3b925910160405180910390a3505b505b6001600160a01b03831660009081526020819052604090205481811015610fb65760405162461bcd60e51b815260206004820152602160248201527f574554483a206275726e20616d6f756e7420657863656564732062616c616e636044820152606560f81b606482015260840161051a565b610fc082826116d0565b6001600160a01b0385166000818152602081815260408083209490945592518581529092600080516020611750833981519152910160405180910390a36000836001600160a01b03168360405160006040518083038185875af1925050503d806000811461104a576040519150601f19603f3d011682016040523d82523d6000602084013e61104f565b606091505b50509050806110a05760405162461bcd60e51b815260206004820152601b60248201527f574554483a204574686572207472616e73666572206661696c65640000000000604482015260640161051a565b5050505050565b60006001600160a01b0383161561119c5733600090815260208190526040902054828110156111265760405162461bcd60e51b815260206004820152602560248201527f574554483a207472616e7366657220616d6f756e7420657863656564732062616044820152646c616e636560d81b606482015260840161051a565b61113083826116d0565b33600090815260208190526040808220929092556001600160a01b0386168152908120805485929061116390849061146e565b90915550506040518381526001600160a01b0385169033906000805160206117508339815191529060200160405180910390a3506112df565b33600090815260208190526040902054828110156112065760405162461bcd60e51b815260206004820152602160248201527f574554483a206275726e20616d6f756e7420657863656564732062616c616e636044820152606560f81b606482015260840161051a565b61121083826116d0565b336000818152602081815260408083209490945592518681529092600080516020611750833981519152910160405180910390a3604051600090339085908381818185875af1925050503d8060008114611286576040519150601f19603f3d011682016040523d82523d6000602084013e61128b565b606091505b50509050806112dc5760405162461bcd60e51b815260206004820152601960248201527f574554483a20455448207472616e73666572206661696c656400000000000000604482015260640161051a565b50505b50600192915050565b6001600160a01b0381166000908152602081905260408120805434929061131090849061146e565b90915550506040513481526001600160a01b038216906000906000805160206117508339815191529060200160405180910390a350565b3360008181526001602090815260408083206001600160a01b038916808552925280832087905551919290917f8c5be1e5ebec7d5bd14f71427d1e84f3dd0314c0f7b2291e5b200ac8c7c3b925906113a29088815260200190565b60405180910390a36040517eba451f0000000000000000000000000000000000000000000000000000000081526001600160a01b0386169062ba451f90610d229033908890889088906004016116e7565b336000908152602081905260408120805434929061141290849061146e565b909155505060405134815233906000906000805160206117508339815191529060200160405180910390a3565b7f4e487b7100000000000000000000000000000000000000000000000000000000600052601160045260246000fd5b600082198211156114815761148161143f565b500190565b600060208083528351808285015260005b818110156114b357858101830151858201604001528201611497565b818111156114c5576000604083870101525b50601f01601f1916929092016040019392505050565b6001600160a01b03811681146114f057600080fd5b50565b6000806040838503121561150657600080fd5b8235611511816114db565b946020939093013593505050565b60008060006060848603121561153457600080fd5b833561153f816114db565b9250602084013561154f816114db565b929592945050506040919091013590565b60006020828403121561157257600080fd5b5035919050565b60008083601f84011261158b57600080fd5b50813567ffffffffffffffff8111156115a357600080fd5b6020830191508360208285010111156115bb57600080fd5b9250929050565b600080600080606085870312156115d857600080fd5b84356115e3816114db565b935060208501359250604085013567ffffffffffffffff81111561160657600080fd5b61161287828801611579565b95989497509550505050565b60008060006040848603121561163357600080fd5b833561163e816114db565b9250602084013567ffffffffffffffff81111561165a57600080fd5b61166686828701611579565b9497909650939450505050565b60006020828403121561168557600080fd5b8135611690816114db565b9392505050565b600080604083850312156116aa57600080fd5b82356116b5816114db565b915060208301356116c5816114db565b809150509250929050565b6000828210156116e2576116e261143f565b500390565b6001600160a01b038516815283602082015260606040820152816060820152818360808301376000818301608090810191909152601f909201601f191601019392505050565b60006020828403121561173f57600080fd5b8151801515811461169057600080fdfeddf252ad1be2c89b69c2b068fc378daa952ba7f163c4a11628f55a4df523b3efa26469706673582212206055a33d23eb6a540b3046c3666ba691ada65158d456021c7f4f0032e70cba6164736f6c634300080b0033",
  "immutableReferences": {
    "5902": [
      {
        "length": 32,
        "start": 998
      }
    ]
  },
  "source": "// SPDX-License-Identifier: GPL-3.0-or-later\n// Copyright (C) 2015, 2016, 2017 Dapphub\n// Adapted by Ethereum Community 2021\npragma solidity ^0.8.11;\n\nimport \"./interfaces/IWETH10.sol\";\n\ninterface ITransferReceiver {\n    function onTokenTransfer(address, uint, bytes calldata) external returns (bool);\n}\n\ninterface IApprovalReceiver {\n    function onTokenApproval(address, uint, bytes calldata) external returns (bool);\n}\n\n/// @dev Wrapped Ether v10 (WETH10) is an Ether (ETH) ERC-20 wrapper. You can `deposit` ETH and obtain a WETH10 balance which can then be operated as an ERC-20 token. You can\n/// `withdraw` ETH from WETH10, which will then burn WETH10 token in your wallet. The amount of WETH10 token in any wallet is always identical to the\n/// balance of ETH deposited minus the ETH withdrawn with that specific wallet.\ncontract WETH10 is IWETH10 {\n\n    string public constant name = \"Wrapped Ether v10\";\n    string public constant symbol = \"WETH10\";\n    uint8  public constant decimals = 18;\n\n    uint256 public immutable deploymentChainId;\n\n    /// @dev Records amount of WETH10 token owned by account.\n    mapping (address => uint256) public override balanceOf;\n\n    /// @dev Records number of WETH10 token that account (second) will be allowed to spend on behalf of another account (first) through {transferFrom}.\n    mapping (address => mapping (address => uint256)) public override allowance;\n    \n    constructor() {\n        uint256 chainId;\n        assembly {chainId := chainid()}\n        deploymentChainId = chainId;\n    }\n    \n    /// @dev Returns the total supply of WETH10 token as the ETH held in this contract.\n    function totalSupply() external view override returns (uint256) {\n        return address(this).balance;\n    }\n\n    /// @dev Fallback, `msg.value` of ETH sent to this contract grants caller account a matching increase in WETH10 token balance.\n    /// Emits {Transfer} event to reflect WETH10 token mint of `msg.value` from `address(0)` to caller account.\n    receive() external payable {\n        // _mintTo(msg.sender, msg.value);\n        balanceOf[msg.sender] += msg.value;\n        emit Transfer(address(0), msg.sender, msg.value);\n    }\n\n    /// @dev `msg.value` of ETH sent to this contract grants caller account a matching increase in WETH10 token balance.\n    /// Emits {Transfer} event to reflect WETH10 token mint of `msg.value` from `address(0)` to caller account.\n    function deposit() external override payable {\n        // _mintTo(msg.sender, msg.value);\n        balanceOf[msg.sender] += msg.value;\n        emit Transfer(address(0), msg.sender, msg.value);\n    }\n\n    /// @dev `msg.value` of ETH sent to this contract grants `to` account a matching increase in WETH10 token balance.\n    /// Emits {Transfer} event to reflect WETH10 token mint of `msg.value` from `address(0)` to `to` account.\n    function depositTo(address to) external override payable {\n        // _mintTo(to, msg.value);\n        balanceOf[to] += msg.value;\n        emit Transfer(address(0), to, msg.value);\n    }\n\n    /// @dev `msg.value` of ETH sent to this contract grants `to` account a matching increase in WETH10 token balance,\n    /// after which a call is executed to an ERC677-compliant contract with the `data` parameter.\n    /// Emits {Transfer} event.\n    /// Returns boolean value indicating whether operation succeeded.\n    /// For more information on {transferAndCall} format, see https://github.com/ethereum/EIPs/issues/677.\n    function depositToAndCall(address to, bytes calldata data) external override payable returns (bool success) {\n        // _mintTo(to, msg.value);\n        balanceOf[to] += msg.value;\n        emit Transfer(address(0), to, msg.value);\n\n        return ITransferReceiver(to).onTokenTransfer(msg.sender, msg.value, data);\n    }\n\n    /// @dev Burn `value` WETH10 token from caller account and withdraw matching ETH to the same.\n    /// Emits {Transfer} event to reflect WETH10 token burn of `value` to `address(0)` from caller account. \n    /// Requirements:\n    ///   - caller account must have at least `value` balance of WETH10 token.\n    function withdraw(uint256 value) external override {\n        // _burnFrom(msg.sender, value);\n        uint256 balance = balanceOf[msg.sender];\n        require(balance >= value, \"WETH: burn amount exceeds balance\");\n        balanceOf[msg.sender] = balance - value;\n        emit Transfer(msg.sender, address(0), value);\n\n        // _transferEther(msg.sender, value);        \n        (bool success, ) = msg.sender.call{value: value}(\"\");\n        require(success, \"WETH: ETH transfer failed\");\n    }\n\n    /// @dev Burn `value` WETH10 token from caller account and withdraw matching ETH to account (`to`).\n    /// Emits {Transfer} event to reflect WETH10 token burn of `value` to `address(0)` from caller account.\n    /// Requirements:\n    ///   - caller account must have at least `value` balance of WETH10 token.\n    function withdrawTo(address payable to, uint256 value) external override {\n        // _burnFrom(msg.sender, value);\n        uint256 balance = balanceOf[msg.sender];\n        require(balance >= value, \"WETH: burn amount exceeds balance\");\n        balanceOf[msg.sender] = balance - value;\n        emit Transfer(msg.sender, address(0), value);\n\n        // _transferEther(to, value);        \n        (bool success, ) = to.call{value: value}(\"\");\n        require(success, \"WETH: ETH transfer failed\");\n    }\n\n    /// @dev Burn `value` WETH10 token from account (`from`) and withdraw matching ETH to account (`to`).\n    /// Emits {Approval} event to reflect reduced allowance `value` for caller account to spend from account (`from`),\n    /// unless allowance is set to `type(uint256).max`\n    /// Emits {Transfer} event to reflect WETH10 token burn of `value` to `address(0)` from account (`from`).\n    /// Requirements:\n    ///   - `from` account must have at least `value` balance of WETH10 token.\n    ///   - `from` account must have approved caller to spend at least `value` of WETH10 token, unless `from` and caller are the same account.\n    function withdrawFrom(address from, address payable to, uint256 value) external override {\n        if (from != msg.sender) {\n            // _decreaseAllowance(from, msg.sender, value);\n            uint256 allowed = allowance[from][msg.sender];\n            if (allowed != type(uint256).max) {\n                require(allowed >= value, \"WETH: request exceeds allowance\");\n                uint256 reduced = allowed - value;\n                allowance[from][msg.sender] = reduced;\n                emit Approval(from, msg.sender, reduced);\n            }\n        }\n        \n        // _burnFrom(from, value);\n        uint256 balance = balanceOf[from];\n        require(balance >= value, \"WETH: burn amount exceeds balance\");\n        balanceOf[from] = balance - value;\n        emit Transfer(from, address(0), value);\n\n        // _transferEther(to, value);        \n        (bool success, ) = to.call{value: value}(\"\");\n        require(success, \"WETH: Ether transfer failed\");\n    }\n\n    /// @dev Sets `value` as allowance of `spender` account over caller account's WETH10 token.\n    /// Emits {Approval} event.\n    /// Returns boolean value indicating whether operation succeeded.\n    function approve(address spender, uint256 value) external override returns (bool) {\n        // _approve(msg.sender, spender, value);\n        allowance[msg.sender][spender] = value;\n        emit Approval(msg.sender, spender, value);\n\n        return true;\n    }\n\n    /// @dev Sets `value` as allowance of `spender` account over caller account's WETH10 token,\n    /// after which a call is executed to an ERC677-compliant contract with the `data` parameter.\n    /// Emits {Approval} event.\n    /// Returns boolean value indicating whether operation succeeded.\n    /// For more information on {approveAndCall} format, see https://github.com/ethereum/EIPs/issues/677.\n    function approveAndCall(address spender, uint256 value, bytes calldata data) external override returns (bool) {\n        // _approve(msg.sender, spender, value);\n        allowance[msg.sender][spender] = value;\n        emit Approval(msg.sender, spender, value);\n        \n        return IApprovalReceiver(spender).onTokenApproval(msg.sender, value, data);\n    }\n\n    /// @dev Moves `value` WETH10 token from caller's account to account (`to`).\n    /// A transfer to `address(0)` triggers an ETH withdraw matching the sent WETH10 token in favor of caller.\n    /// Emits {Transfer} event.\n    /// Returns boolean value indicating whether operation succeeded.\n    /// Requirements:\n    ///   - caller account must have at least `value` WETH10 token.\n    function transfer(address to, uint256 value) external override returns (bool) {\n        // _transferFrom(msg.sender, to, value);\n        if (to != address(0)) { // Transfer\n            uint256 balance = balanceOf[msg.sender];\n            require(balance >= value, \"WETH: transfer amount exceeds balance\");\n\n            balanceOf[msg.sender] = balance - value;\n            balanceOf[to] += value;\n            emit Transfer(msg.sender, to, value);\n        } else { // Withdraw\n            uint256 balance = balanceOf[msg.sender];\n            require(balance >= value, \"WETH: burn amount exceeds balance\");\n            balanceOf[msg.sender] = balance - value;\n            emit Transfer(msg.sender, address(0), value);\n            \n            (bool success, ) = msg.sender.call{value: value}(\"\");\n            require(success, \"WETH: ETH transfer failed\");\n        }\n        \n        return true;\n    }\n\n    /// @dev Moves `value` WETH10 token from account (`from`) to account (`to`) using allowance mechanism.\n    /// `value` is then deducted from caller account's allowance, unless set to `type(uint256).max`.\n    /// A transfer to `address(0)` triggers an ETH withdraw matching the sent WETH10 token in favor of caller.\n    /// Emits {Approval} event to reflect reduced allowance `value` for caller account to spend from account (`from`),\n    /// unless allowance is set to `type(uint256).max`\n    /// Emits {Transfer} event.\n    /// Returns boolean value indicating whether operation succeeded.\n    /// Requirements:\n    ///   - `from` account must have at least `value` balance of WETH10 token.\n    ///   - `from` account must have approved caller to spend at least `value` of WETH10 token, unless `from` and caller are the same account.\n    function transferFrom(address from, address to, uint256 value) \n    external override returns (bool) {\n        if (from != msg.sender) {\n            // _decreaseAllowance(from, msg.sender, value);\n            uint256 allowed = allowance[from][msg.sender];\n            if (allowed != type(uint256).max) {\n                require(allowed >= value, \"WETH: request exceeds allowance\");\n                uint256 reduced = allowed - value;\n                allowance[from][msg.sender] = reduced;\n                emit Approval(from, msg.sender, reduced);\n            }\n        }\n        \n        // _transferFrom(from, to, value);\n        if (to != address(0)) { // Transfer\n            uint256 balance = balanceOf[from];\n            require(balance >= value, \"WETH: transfer amount exceeds balance\");\n\n            balanceOf[from] = balance - value;\n            balanceOf[to] += value;\n            emit Transfer(from, to, value);\n        } else { // Withdraw\n            uint256 balance = balanceOf[from];\n            require(balance >= value, \"WETH: burn amount exceeds balance\");\n            balanceOf[from] = balance - value;\n            emit Transfer(from, address(0), value);\n        \n            (bool success, ) = msg.sender.call{value: value}(\"\");\n            require(success, \"WETH: ETH transfer failed\");\n        }\n        \n        return true;\n    }\n\n    /// @dev Moves `value` WETH10 token from caller's account to account (`to`), \n    /// after which a call is executed to an ERC677-compliant contract with the `data` parameter.\n    /// A transfer to `address(0)` triggers an ETH withdraw matching the sent WETH10 token in favor of caller.\n    /// Emits {Transfer} event.\n    /// Returns boolean value indicating whether operation succeeded.\n    /// Requirements:\n    ///   - caller account must have at least `value` WETH10 token.\n    /// For more information on {transferAndCall} format, see https://github.com/ethereum/EIPs/issues/677.\n    function transferAndCall(address to, uint value, bytes calldata data) external override returns (bool) {\n        // _transferFrom(msg.sender, to, value);\n        if (to != address(0)) { // Transfer\n            uint256 balance = balanceOf[msg.sender];\n            require(balance >= value, \"WETH: transfer amount exceeds balance\");\n\n            balanceOf[msg.sender] = balance - value;\n            balanceOf[to] += value;\n            emit Transfer(msg.sender, to, value);\n        } else { // Withdraw\n            uint256 balance = balanceOf[msg.sender];\n            require(balance >= value, \"WETH: burn amount exceeds balance\");\n            balanceOf[msg.sender] = balance - value;\n            emit Transfer(msg.sender, address(0), value);\n        \n            (bool success, ) = msg.sender.call{value: value}(\"\");\n            require(success, \"WETH: ETH transfer failed\");\n        }\n\n        return ITransferReceiver(to).onTokenTransfer(msg.sender, value, data);\n    }\n}",
  "sourcePath": "/home/giangh/Desktop/Projects/marketplace/contracts/WETH10.sol",
  "compiler": {
    "name": "solc",
    "version": "0.8.11+commit.d7f03943.Emscripten.clang"
  },
  "schemaVersion": "3.4.6",
  "updatedAt": "2022-03-18T16:47:04.768Z",
  "networkType": "ethereum",
  "devdoc": {
    "details": "Wrapped Ether v10 (WETH10) is an Ether (ETH) ERC-20 wrapper. You can `deposit` ETH and obtain a WETH10 balance which can then be operated as an ERC-20 token. You can `withdraw` ETH from WETH10, which will then burn WETH10 token in your wallet. The amount of WETH10 token in any wallet is always identical to the balance of ETH deposited minus the ETH withdrawn with that specific wallet.",
    "kind": "dev",
    "methods": {
      "approve(address,uint256)": {
        "details": "Sets `value` as allowance of `spender` account over caller account's WETH10 token. Emits {Approval} event. Returns boolean value indicating whether operation succeeded."
      },
      "approveAndCall(address,uint256,bytes)": {
        "details": "Sets `value` as allowance of `spender` account over caller account's WETH10 token, after which a call is executed to an ERC677-compliant contract with the `data` parameter. Emits {Approval} event. Returns boolean value indicating whether operation succeeded. For more information on {approveAndCall} format, see https://github.com/ethereum/EIPs/issues/677."
      },
      "deposit()": {
        "details": "`msg.value` of ETH sent to this contract grants caller account a matching increase in WETH10 token balance. Emits {Transfer} event to reflect WETH10 token mint of `msg.value` from `address(0)` to caller account."
      },
      "depositTo(address)": {
        "details": "`msg.value` of ETH sent to this contract grants `to` account a matching increase in WETH10 token balance. Emits {Transfer} event to reflect WETH10 token mint of `msg.value` from `address(0)` to `to` account."
      },
      "depositToAndCall(address,bytes)": {
        "details": "`msg.value` of ETH sent to this contract grants `to` account a matching increase in WETH10 token balance, after which a call is executed to an ERC677-compliant contract with the `data` parameter. Emits {Transfer} event. Returns boolean value indicating whether operation succeeded. For more information on {transferAndCall} format, see https://github.com/ethereum/EIPs/issues/677."
      },
      "totalSupply()": {
        "details": "Returns the total supply of WETH10 token as the ETH held in this contract."
      },
      "transfer(address,uint256)": {
        "details": "Moves `value` WETH10 token from caller's account to account (`to`). A transfer to `address(0)` triggers an ETH withdraw matching the sent WETH10 token in favor of caller. Emits {Transfer} event. Returns boolean value indicating whether operation succeeded. Requirements:   - caller account must have at least `value` WETH10 token."
      },
      "transferAndCall(address,uint256,bytes)": {
        "details": "Moves `value` WETH10 token from caller's account to account (`to`),  after which a call is executed to an ERC677-compliant contract with the `data` parameter. A transfer to `address(0)` triggers an ETH withdraw matching the sent WETH10 token in favor of caller. Emits {Transfer} event. Returns boolean value indicating whether operation succeeded. Requirements:   - caller account must have at least `value` WETH10 token. For more information on {transferAndCall} format, see https://github.com/ethereum/EIPs/issues/677."
      },
      "transferFrom(address,address,uint256)": {
        "details": "Moves `value` WETH10 token from account (`from`) to account (`to`) using allowance mechanism. `value` is then deducted from caller account's allowance, unless set to `type(uint256).max`. A transfer to `address(0)` triggers an ETH withdraw matching the sent WETH10 token in favor of caller. Emits {Approval} event to reflect reduced allowance `value` for caller account to spend from account (`from`), unless allowance is set to `type(uint256).max` Emits {Transfer} event. Returns boolean value indicating whether operation succeeded. Requirements:   - `from` account must have at least `value` balance of WETH10 token.   - `from` account must have approved caller to spend at least `value` of WETH10 token, unless `from` and caller are the same account."
      },
      "withdraw(uint256)": {
        "details": "Burn `value` WETH10 token from caller account and withdraw matching ETH to the same. Emits {Transfer} event to reflect WETH10 token burn of `value` to `address(0)` from caller account.  Requirements:   - caller account must have at least `value` balance of WETH10 token."
      },
      "withdrawFrom(address,address,uint256)": {
        "details": "Burn `value` WETH10 token from account (`from`) and withdraw matching ETH to account (`to`). Emits {Approval} event to reflect reduced allowance `value` for caller account to spend from account (`from`), unless allowance is set to `type(uint256).max` Emits {Transfer} event to reflect WETH10 token burn of `value` to `address(0)` from account (`from`). Requirements:   - `from` account must have at least `value` balance of WETH10 token.   - `from` account must have approved caller to spend at least `value` of WETH10 token, unless `from` and caller are the same account."
      },
      "withdrawTo(address,uint256)": {
        "details": "Burn `value` WETH10 token from caller account and withdraw matching ETH to account (`to`). Emits {Transfer} event to reflect WETH10 token burn of `value` to `address(0)` from caller account. Requirements:   - caller account must have at least `value` balance of WETH10 token."
      }
    },
    "stateVariables": {
      "allowance": {
        "details": "Records number of WETH10 token that account (second) will be allowed to spend on behalf of another account (first) through {transferFrom}."
      },
      "balanceOf": {
        "details": "Records amount of WETH10 token owned by account."
      }
    },
    "version": 1
  },
  "userdoc": {
    "kind": "user",
    "methods": {},
    "version": 1
  }
}